{
  "contracts/NftMarketplace.sol": {
    "NftMarketplace": {
      "abi": [
        {
          "inputs": [],
          "stateMutability": "nonpayable",
          "type": "constructor"
        },
        {
          "inputs": [
            {
              "internalType": "address",
              "name": "nftAddress",
              "type": "address"
            },
            {
              "internalType": "uint256",
              "name": "tokenId",
              "type": "uint256"
            }
          ],
          "name": "NftMarketplace__AlreadyListed",
          "type": "error"
        },
        {
          "inputs": [],
          "name": "NftMarketplace__NoProceeds",
          "type": "error"
        },
        {
          "inputs": [],
          "name": "NftMarketplace__NotApprovedForMarketplace",
          "type": "error"
        },
        {
          "inputs": [
            {
              "internalType": "address",
              "name": "nftAddress",
              "type": "address"
            },
            {
              "internalType": "uint256",
              "name": "tokenId",
              "type": "uint256"
            }
          ],
          "name": "NftMarketplace__NotListed",
          "type": "error"
        },
        {
          "inputs": [],
          "name": "NftMarketplace__NotOwner",
          "type": "error"
        },
        {
          "inputs": [],
          "name": "NftMarketplace__PriceMustBeAboveZero",
          "type": "error"
        },
        {
          "inputs": [
            {
              "internalType": "address",
              "name": "nftAddress",
              "type": "address"
            },
            {
              "internalType": "uint256",
              "name": "tokenId",
              "type": "uint256"
            },
            {
              "internalType": "uint256",
              "name": "price",
              "type": "uint256"
            }
          ],
          "name": "NftMarketplace__PriceNotMet",
          "type": "error"
        },
        {
          "inputs": [],
          "name": "NftMarketplace__TransferFailed",
          "type": "error"
        },
        {
          "anonymous": false,
          "inputs": [
            {
              "indexed": true,
              "internalType": "address",
              "name": "buyer",
              "type": "address"
            },
            {
              "indexed": true,
              "internalType": "address",
              "name": "nftAddress",
              "type": "address"
            },
            {
              "indexed": true,
              "internalType": "uint256",
              "name": "tokenId",
              "type": "uint256"
            },
            {
              "indexed": false,
              "internalType": "uint256",
              "name": "price",
              "type": "uint256"
            }
          ],
          "name": "ItemBought",
          "type": "event"
        },
        {
          "anonymous": false,
          "inputs": [
            {
              "indexed": true,
              "internalType": "address",
              "name": "seller",
              "type": "address"
            },
            {
              "indexed": true,
              "internalType": "address",
              "name": "nftAddress",
              "type": "address"
            },
            {
              "indexed": true,
              "internalType": "uint256",
              "name": "tokenId",
              "type": "uint256"
            }
          ],
          "name": "ItemCancel",
          "type": "event"
        },
        {
          "anonymous": false,
          "inputs": [
            {
              "indexed": true,
              "internalType": "address",
              "name": "seller",
              "type": "address"
            },
            {
              "indexed": true,
              "internalType": "address",
              "name": "nftAddress",
              "type": "address"
            },
            {
              "indexed": true,
              "internalType": "uint256",
              "name": "tokenId",
              "type": "uint256"
            },
            {
              "indexed": false,
              "internalType": "uint256",
              "name": "price",
              "type": "uint256"
            }
          ],
          "name": "ItemListed",
          "type": "event"
        },
        {
          "inputs": [
            {
              "internalType": "address",
              "name": "nftAddress",
              "type": "address"
            },
            {
              "internalType": "uint256",
              "name": "tokenId",
              "type": "uint256"
            }
          ],
          "name": "buyItem",
          "outputs": [],
          "stateMutability": "payable",
          "type": "function"
        },
        {
          "inputs": [
            {
              "internalType": "address",
              "name": "nftAddress",
              "type": "address"
            },
            {
              "internalType": "uint256",
              "name": "tokenId",
              "type": "uint256"
            }
          ],
          "name": "cancelListing",
          "outputs": [],
          "stateMutability": "nonpayable",
          "type": "function"
        },
        {
          "inputs": [
            {
              "internalType": "address",
              "name": "nftAddress",
              "type": "address"
            },
            {
              "internalType": "uint256",
              "name": "tokenId",
              "type": "uint256"
            }
          ],
          "name": "getListing",
          "outputs": [
            {
              "components": [
                {
                  "internalType": "uint256",
                  "name": "price",
                  "type": "uint256"
                },
                {
                  "internalType": "address",
                  "name": "seller",
                  "type": "address"
                }
              ],
              "internalType": "struct NftMarketplace.Listing",
              "name": "",
              "type": "tuple"
            }
          ],
          "stateMutability": "view",
          "type": "function"
        },
        {
          "inputs": [
            {
              "internalType": "address",
              "name": "seller",
              "type": "address"
            }
          ],
          "name": "getProceeds",
          "outputs": [
            {
              "internalType": "uint256",
              "name": "",
              "type": "uint256"
            }
          ],
          "stateMutability": "view",
          "type": "function"
        },
        {
          "inputs": [
            {
              "internalType": "address",
              "name": "nftAddress",
              "type": "address"
            },
            {
              "internalType": "uint256",
              "name": "tokenId",
              "type": "uint256"
            },
            {
              "internalType": "uint256",
              "name": "price",
              "type": "uint256"
            }
          ],
          "name": "listItem",
          "outputs": [],
          "stateMutability": "nonpayable",
          "type": "function"
        },
        {
          "inputs": [
            {
              "internalType": "address",
              "name": "nftAddress",
              "type": "address"
            },
            {
              "internalType": "uint256",
              "name": "tokenId",
              "type": "uint256"
            },
            {
              "internalType": "uint256",
              "name": "newPrice",
              "type": "uint256"
            }
          ],
          "name": "updateListings",
          "outputs": [],
          "stateMutability": "nonpayable",
          "type": "function"
        },
        {
          "inputs": [],
          "name": "withdrawProceeds",
          "outputs": [],
          "stateMutability": "nonpayable",
          "type": "function"
        }
      ],
      "devdoc": {
        "kind": "dev",
        "methods": {},
        "version": 1
      },
      "evm": {
        "bytecode": {
          "linkReferences": {},
          "object": "608060405234801561001057600080fd5b50600160008190555061004b7f08cd55033976715dc98391b450e04d56ba4b64371c48bd324926a7fbec319da460001b61005060201b60201c565b610053565b50565b612e2080620000636000396000f3fe6080604052600436106100705760003560e01c806389bfd38f1161004e57806389bfd38f146101185780639038e693146101415780639f37092a14610158578063b2ddee061461017457610070565b806310447fd51461007557806330cfeda91461009e57806388700d1c146100db575b600080fd5b34801561008157600080fd5b5061009c60048036038101906100979190612a68565b61019d565b005b3480156100aa57600080fd5b506100c560048036038101906100c09190612abb565b6108ba565b6040516100d29190612af7565b60405180910390f35b3480156100e757600080fd5b5061010260048036038101906100fd9190612b12565b610986565b60405161010f9190612b9f565b60405180910390f35b34801561012457600080fd5b5061013f600480360381019061013a9190612a68565b610ad4565b005b34801561014d57600080fd5b506101566115a8565b005b610172600480360381019061016d9190612b12565b6119fe565b005b34801561018057600080fd5b5061019b60048036038101906101969190612b12565b61228d565b005b82826101cb7fc519e775e29f2beb3f2090197ece93eb7c9773a573f4d9e107c44d37dd8c8eca60001b61299c565b6101f77f81b669a7f03ec757318db63f359d801165ff15513aa6b71d853f17a54715587d60001b61299c565b6102237f475d5158df0daf715ad52a2283eff48166f5739badd55f044710ec0e3186464560001b61299c565b6000600160008473ffffffffffffffffffffffffffffffffffffffff1673ffffffffffffffffffffffffffffffffffffffff1681526020019081526020016000206000838152602001908152602001600020604051806040016040529081600082015481526020016001820160009054906101000a900473ffffffffffffffffffffffffffffffffffffffff1673ffffffffffffffffffffffffffffffffffffffff1673ffffffffffffffffffffffffffffffffffffffff1681525050905061030e7f53feef8bf2b8c8c2c463a709d31445c7b4e3906a573cd6fa6c01eaf949821a4960001b61299c565b61033a7f51748e20686fd506078df437ebbae97382072eb5bd5b23c98f5d33b0345a3bae60001b61299c565b60008160000151116103dd576103727fe81c8bffc7480f6d8a94cdc75f8efd9fd0c5f08d69e93cb552719eff880e011d60001b61299c565b61039e7f6bfb503c7ef3020687602048a975ea28d71af2543f656de8598a1b7f99404c3960001b61299c565b82826040517f6d350f220000000000000000000000000000000000000000000000000000000081526004016103d4929190612bc9565b60405180910390fd5b6104097f844f137ef12d6a9d4076759bfa156db25dd7c7aa02d3922cd9a1d3fef1cab84b60001b61299c565b6104357f83e3943205c8f39a1a5fe71c96ab4ce2b274348613dde312784bf3839c6c99e460001b61299c565b8585336104647f73a171da1bd5a86809ee4ffa3881d677b720611291d45f698b9a59f7b591cf7c60001b61299c565b6104907f7633b3412ee93419566c55a22d85fcd4af8f12622b5c67ad6d8c47b79478f64a60001b61299c565b6104bc7f5641320b344a589f83234a9a7ea7081b3ede91884ca8bfc3e9e869a9504b3cb160001b61299c565b60008390506104ed7feee16dc6fd977215136e0b06dc04c1ff65683acc0045fb93eb567e68ffa13c0760001b61299c565b6105197f4e7999b461672f302880d0cae33d470b24a905e6fa9258b4043b558b9518715260001b61299c565b60008173ffffffffffffffffffffffffffffffffffffffff16636352211e856040518263ffffffff1660e01b81526004016105549190612af7565b60206040518083038186803b15801561056c57600080fd5b505afa158015610580573d6000803e3d6000fd5b505050506040513d601f19601f820116820180604052508101906105a49190612c07565b90506105d27fadbbfa77f3668d91979747833da47fb58d7986413f6ea5ede6bf2c1d288730a860001b61299c565b6105fe7f4693269ddcbbf3917a96ed5be5b9fd7b47d15ea346e3f0ee296edf9a80900a2960001b61299c565b8073ffffffffffffffffffffffffffffffffffffffff168373ffffffffffffffffffffffffffffffffffffffff16146106bb5761065d7f345d3bab66cff43e74f9139b8ec7fafba0ac68ddf8385d03583c6514217c6d8560001b61299c565b6106897f53f9460763f2b3c3df560cdaf5f646b0d0e79ab1d885ca6ff91d2d1eac75003660001b61299c565b6040517f94953b6000000000000000000000000000000000000000000000000000000000815260040160405180910390fd5b6106e77fa5ca2397fbb88c9c5d804792503658eb4bdf1282e159a6b914a217431462acbb60001b61299c565b6107137f5f4bee125d4b9cf0cdc2d72ebda79319f5f1a70ee2a16c034b63f073e914128b60001b61299c565b61073f7f905d03f0cba920910c25439c8329d17a7812da5dd462f44e00c730c19d006a5060001b61299c565b61076b7fb55a455f736189f9f627274ec6f0e887ad57c57e0a5bbbf4111b94dfc5420b4360001b61299c565b6107977f7d2a6dbe493b3c5563304fee164985d8353597c4159d815646b9602793d078e660001b61299c565b88600160008d73ffffffffffffffffffffffffffffffffffffffff1673ffffffffffffffffffffffffffffffffffffffff16815260200190815260200160002060008c81526020019081526020016000206000018190555061081b7fd43edbfff49056af14e644890796b11d59d44e2362a5574510741a9cc93b4e1760001b61299c565b6108477fa581c3a772a576abc9affb6eff07294d8d2092030ffa192e3fee7e5cc2e556eb60001b61299c565b898b73ffffffffffffffffffffffffffffffffffffffff163373ffffffffffffffffffffffffffffffffffffffff167fd547e933094f12a9159076970143ebe73234e64480317844b0dcb36117116de48c6040516108a59190612af7565b60405180910390a45050505050505050505050565b60006108e77e3500f8a53f4c390b828d535ece7f7a3187252d0d676f99118b22c9eb672e4260001b61299c565b6109137f3e60842493028f8b10bb7b795b6e9e120572d19a82eae143c2b687643f9c969860001b61299c565b61093f7f5905d97b5a39d87270efb3a76aa21c121f4284bb19428564f8b529696817e31a60001b61299c565b600260008373ffffffffffffffffffffffffffffffffffffffff1673ffffffffffffffffffffffffffffffffffffffff168152602001908152602001600020549050919050565b61098e61299f565b6109ba7f7a2012b57c57cc1ef8e3ef7ea3137ece216f44af55cc35f65fde8da5f07022e160001b61299c565b6109e67f4983357291750f22eb870e4bc5eda578f1e29c6588d2f311a784f9d7ae5dba0260001b61299c565b610a117ee90c4e9f6dbfda7ebfe8e396fe678b4042dca42370498efbbcf477d8a63f4560001b61299c565b600160008473ffffffffffffffffffffffffffffffffffffffff1673ffffffffffffffffffffffffffffffffffffffff1681526020019081526020016000206000838152602001908152602001600020604051806040016040529081600082015481526020016001820160009054906101000a900473ffffffffffffffffffffffffffffffffffffffff1673ffffffffffffffffffffffffffffffffffffffff1673ffffffffffffffffffffffffffffffffffffffff1681525050905092915050565b828233610b037fbc0a5e6c542015faefded3e95913e972a094cde06fa65feecfe88d5296cdefc460001b61299c565b610b2f7f126c51f6bdef38d6f64c9b990f6d198517f47590ffc8814433a63781e94659bd60001b61299c565b610b5b7f578b33e2318f04a0d936a10864b9e9d634e8e393ce67c72ef9b0039fdf0feda460001b61299c565b6000600160008573ffffffffffffffffffffffffffffffffffffffff1673ffffffffffffffffffffffffffffffffffffffff1681526020019081526020016000206000848152602001908152602001600020604051806040016040529081600082015481526020016001820160009054906101000a900473ffffffffffffffffffffffffffffffffffffffff1673ffffffffffffffffffffffffffffffffffffffff1673ffffffffffffffffffffffffffffffffffffffff16815250509050610c467f24f0c7cee8b08b5be2c23c1e64a27c3d79827e75e695f98d7c7e0071f9dd9f1560001b61299c565b610c727f893b055db7a89b68e6bc2599d59b1eddcad65d3ba953592c425fe18536326c0360001b61299c565b600081600001511115610d1657610cab7fb3b6a9c4b728cff57095f60b1005bf6962ffe7b628ba199dde0098b407c867f860001b61299c565b610cd77fdcd35e35c080b25ca2936c2e24f11452cd3b12b1fb1e27246863e7d4f8b568c460001b61299c565b83836040517fc2f0d709000000000000000000000000000000000000000000000000000000008152600401610d0d929190612bc9565b60405180910390fd5b610d427fb2a5828c0a867cf901e2a9bee4cffa56d8870e1cdaabacd9c46d6bb2d909186a60001b61299c565b610d6e7f39cecd5302e866439ffac0e61a39339fb61b1195b4102465bcf24f0ad8ece69260001b61299c565b868633610d9d7f73a171da1bd5a86809ee4ffa3881d677b720611291d45f698b9a59f7b591cf7c60001b61299c565b610dc97f7633b3412ee93419566c55a22d85fcd4af8f12622b5c67ad6d8c47b79478f64a60001b61299c565b610df57f5641320b344a589f83234a9a7ea7081b3ede91884ca8bfc3e9e869a9504b3cb160001b61299c565b6000839050610e267feee16dc6fd977215136e0b06dc04c1ff65683acc0045fb93eb567e68ffa13c0760001b61299c565b610e527f4e7999b461672f302880d0cae33d470b24a905e6fa9258b4043b558b9518715260001b61299c565b60008173ffffffffffffffffffffffffffffffffffffffff16636352211e856040518263ffffffff1660e01b8152600401610e8d9190612af7565b60206040518083038186803b158015610ea557600080fd5b505afa158015610eb9573d6000803e3d6000fd5b505050506040513d601f19601f82011682018060405250810190610edd9190612c07565b9050610f0b7fadbbfa77f3668d91979747833da47fb58d7986413f6ea5ede6bf2c1d288730a860001b61299c565b610f377f4693269ddcbbf3917a96ed5be5b9fd7b47d15ea346e3f0ee296edf9a80900a2960001b61299c565b8073ffffffffffffffffffffffffffffffffffffffff168373ffffffffffffffffffffffffffffffffffffffff1614610ff457610f967f345d3bab66cff43e74f9139b8ec7fafba0ac68ddf8385d03583c6514217c6d8560001b61299c565b610fc27f53f9460763f2b3c3df560cdaf5f646b0d0e79ab1d885ca6ff91d2d1eac75003660001b61299c565b6040517f94953b6000000000000000000000000000000000000000000000000000000000815260040160405180910390fd5b6110207fa5ca2397fbb88c9c5d804792503658eb4bdf1282e159a6b914a217431462acbb60001b61299c565b61104c7f5f4bee125d4b9cf0cdc2d72ebda79319f5f1a70ee2a16c034b63f073e914128b60001b61299c565b6110787f1fc14f499c7bea5e490f6cad2461af767b8f6e5dc6d827c7cedd1ec57b4d342b60001b61299c565b6110a47f933c943774e5004e49e94ac3478f6ca1ee3c10f58499ecdee98b36d0049f87de60001b61299c565b6110d07f6035201f58f080402078f74a91c8e92c8db72dd8db73c260dc7c164d941a37b460001b61299c565b60008a11611162576111047f0c88702f0f2bd10f5f7f73b9797d211f85a3a0cfd41cc518b310da8483756cf860001b61299c565b6111307f5bb6212249014ed1e14387282fab7bc56b401a4738fa872edba72530df1c48fc60001b61299c565b6040517f096d7ecf00000000000000000000000000000000000000000000000000000000815260040160405180910390fd5b61118e7fcba1c135b5ae2527df5a4571a8aa7c7f505157a68eb7d51edc0b11b42ec2df2a60001b61299c565b6111ba7f56845939de63b7c3f1a1c180dd0fb0e7d8909fa2e78def0a55ee6f30b46e2b4260001b61299c565b6111e67ff24df631fe8b92348c0d4052c84276df47752ca785f2cd8d623b4a053f343c5660001b61299c565b60008c90506112177fe63df89a8b10369c9a9b5d21191eebfa98800caab7fef21c70388e229524a86c60001b61299c565b6112437ffda6de3a92fbfa1f659f634b50a415a2ab9e6f31687ca0cf7ef1e2968288381a60001b61299c565b3073ffffffffffffffffffffffffffffffffffffffff168173ffffffffffffffffffffffffffffffffffffffff1663081812fc8e6040518263ffffffff1660e01b81526004016112939190612af7565b60206040518083038186803b1580156112ab57600080fd5b505afa1580156112bf573d6000803e3d6000fd5b505050506040513d601f19601f820116820180604052508101906112e39190612c07565b73ffffffffffffffffffffffffffffffffffffffff16146113885761132a7ffba1ce91b994f899b13399718c1cb5e07b673876d106297e8f0880c7ae3b98c860001b61299c565b6113567f4588c130fc830a995cc06742874a4b5238d5df3aca3902fe23d3e2c0fbb9387960001b61299c565b6040517f13e7d28d00000000000000000000000000000000000000000000000000000000815260040160405180910390fd5b6113b47f15016426543f5eccb04c0730d785a9f858ab0960d907429f58b62ceb8afd548a60001b61299c565b6113e07fb4c9a3e5dfd14a13e4cf499d3305859dae4b842e86afefa6f47861ddb980448a60001b61299c565b61140c7f6244a2806eef7dcda4e9e76b9100c2ddd11c74a7a1e432a344cbd522dbdc158560001b61299c565b60405180604001604052808c81526020013373ffffffffffffffffffffffffffffffffffffffff16815250600160008f73ffffffffffffffffffffffffffffffffffffffff1673ffffffffffffffffffffffffffffffffffffffff16815260200190815260200160002060008e81526020019081526020016000206000820151816000015560208201518160010160006101000a81548173ffffffffffffffffffffffffffffffffffffffff021916908373ffffffffffffffffffffffffffffffffffffffff1602179055509050506115077f14f0041b7897d5a154094655794c09770e30a892f555eba106d5ba9ecbef890760001b61299c565b6115337f47a999b1d1cf94f8fe7d15dc567aa2d9a5e129ce001e28e54ef0475e93aa8f4960001b61299c565b8b8d73ffffffffffffffffffffffffffffffffffffffff163373ffffffffffffffffffffffffffffffffffffffff167fd547e933094f12a9159076970143ebe73234e64480317844b0dcb36117116de48e6040516115919190612af7565b60405180910390a450505050505050505050505050565b6115d47f44776a1ce164dc157c1c6dc2919837ac48f0d4093876bc7f1efed10cd0fa72b660001b61299c565b6116007f54e0d57e9d684f850fe51dda09d0c6da9e3e1f68b91ef57731a845434e86acd660001b61299c565b61162c7fffc5eb37a10d71eda85413ce4cd6217d097738c7ab52dacc306c5a0c50c16f4f60001b61299c565b6000600260003373ffffffffffffffffffffffffffffffffffffffff1673ffffffffffffffffffffffffffffffffffffffff16815260200190815260200160002054905061169c7ffe1876d5bbbd5b60902727d8b02047d4eedc7c71c406c60474bd5413fc7d604160001b61299c565b6116c87f54b2bcdcbb31ae93a69422f32e869b2ff2cc51778cdb11c9b05874c8dbae0e6360001b61299c565b6000811161175a576116fc7fc887348abbc90e3d82f2d138796864f09a1b2703410a2f0d9f458c4f739d8e0060001b61299c565b6117287f243c9dd54c8ce7362e67dd336e83a5c257a94e7810f3018d538e9a5ad09c9f4360001b61299c565b6040517f668a7c4200000000000000000000000000000000000000000000000000000000815260040160405180910390fd5b6117867f57ce130a4f1691524cc315f5733fca3981e4859a3b7875b92b243150092e0ac960001b61299c565b6117b27fe5d39bd041bf45d9167fed41cf71edb3a3920590fe615ee4881d7ff15c43171560001b61299c565b6117de7f28cd535d3e6ad2f5a2706f5d32a52880a79f37d1d780c44f03bfd1ec65bb0e2860001b61299c565b6000600260003373ffffffffffffffffffffffffffffffffffffffff1673ffffffffffffffffffffffffffffffffffffffff1681526020019081526020016000208190555061184f7f3c127507c0a412ba62c8dd686c95488c8800e05a37d48924d0a2173973c3bf9760001b61299c565b61187b7f93384416aa377a4eff7952e7d7838207671993c574767742b1f2247ff1fad54a60001b61299c565b60003373ffffffffffffffffffffffffffffffffffffffff16826040516118a190612c65565b60006040518083038185875af1925050503d80600081146118de576040519150601f19603f3d011682016040523d82523d6000602084013e6118e3565b606091505b505090506119137f0dc5624ea5f5a1f58fb1e76e5b9b0aeb4d0535502221a67d72c3d0da0bd58f7660001b61299c565b61193f7feed4b8892d958867bb9411e17d07257f16b693049d86bd1a08ab717f23a8601160001b61299c565b806119ce576119707f31695abd5a4a464797dce90e10ea343e433ff91b9c755d90d820bcc2b38106dc60001b61299c565b61199c7f2fe8c6b4ea5d2f17e072739e41234f3c097f8fb6b12138b41fc73cdcd988911960001b61299c565b6040517fa05884ba00000000000000000000000000000000000000000000000000000000815260040160405180910390fd5b6119fa7f520f67cffc4c3a477ed1d6acac5762daeeaa3abb8d4164f867f825f8a8ff0d7860001b61299c565b5050565b60026000541415611a44576040517f08c379a0000000000000000000000000000000000000000000000000000000008152600401611a3b90612cd7565b60405180910390fd5b60026000819055508181611a7a7fc519e775e29f2beb3f2090197ece93eb7c9773a573f4d9e107c44d37dd8c8eca60001b61299c565b611aa67f81b669a7f03ec757318db63f359d801165ff15513aa6b71d853f17a54715587d60001b61299c565b611ad27f475d5158df0daf715ad52a2283eff48166f5739badd55f044710ec0e3186464560001b61299c565b6000600160008473ffffffffffffffffffffffffffffffffffffffff1673ffffffffffffffffffffffffffffffffffffffff1681526020019081526020016000206000838152602001908152602001600020604051806040016040529081600082015481526020016001820160009054906101000a900473ffffffffffffffffffffffffffffffffffffffff1673ffffffffffffffffffffffffffffffffffffffff1673ffffffffffffffffffffffffffffffffffffffff16815250509050611bbd7f53feef8bf2b8c8c2c463a709d31445c7b4e3906a573cd6fa6c01eaf949821a4960001b61299c565b611be97f51748e20686fd506078df437ebbae97382072eb5bd5b23c98f5d33b0345a3bae60001b61299c565b6000816000015111611c8c57611c217fe81c8bffc7480f6d8a94cdc75f8efd9fd0c5f08d69e93cb552719eff880e011d60001b61299c565b611c4d7f6bfb503c7ef3020687602048a975ea28d71af2543f656de8598a1b7f99404c3960001b61299c565b82826040517f6d350f22000000000000000000000000000000000000000000000000000000008152600401611c83929190612bc9565b60405180910390fd5b611cb87f844f137ef12d6a9d4076759bfa156db25dd7c7aa02d3922cd9a1d3fef1cab84b60001b61299c565b611ce47f83e3943205c8f39a1a5fe71c96ab4ce2b274348613dde312784bf3839c6c99e460001b61299c565b611d107f6a4329fd8e9fda6f3daab2bd96b51425d9e7842d8e1e87eee808e1ef67840b7160001b61299c565b611d3c7f08eb4cb02684ae9a9939b2b4e21fb0eeeedb1ed3449bad050d6cb3fdfc1bcc6260001b61299c565b611d687fd98b55e3894a4fa25445f03274e5d1e8b82437d66bb33081c41d54f1a3b0fbf560001b61299c565b6000600160008773ffffffffffffffffffffffffffffffffffffffff1673ffffffffffffffffffffffffffffffffffffffff1681526020019081526020016000206000868152602001908152602001600020604051806040016040529081600082015481526020016001820160009054906101000a900473ffffffffffffffffffffffffffffffffffffffff1673ffffffffffffffffffffffffffffffffffffffff1673ffffffffffffffffffffffffffffffffffffffff16815250509050611e537f19a720e8c8800e289bea842b015f400614f119c051fa766da47327ce42a463d060001b61299c565b611e7f7f079a2839598a7ee4acf65be06c52cea7b2f41ebb58c6fcdc0c0eef651b49014b60001b61299c565b8060000151341015611f2857611eb77f78fd7fdeaa4f6a7a6a0c842072e0d1cdb644c3f8cf25eaf7eea0c33dfd0f9fe760001b61299c565b611ee37f7a801783a6604d5ab7e43188292c0dd9b9114b6b8c662f7ff3b34ccd5b8bc5e860001b61299c565b858582600001516040517f817ce9f1000000000000000000000000000000000000000000000000000000008152600401611f1f93929190612cf7565b60405180910390fd5b611f547f8ebe25d3102a669756619fa9a233c900df5dbf9dee300b7b7ef35bb0ab9f163d60001b61299c565b611f807f8bdddf5f8d21136da36bfa64a8838c6f4cf938c66999ba9a5d00fa1a1d7400d560001b61299c565b611fac7fb7069024455f076d75ea9210aa5142157ceec49467bfcca1d86832ce9034090160001b61299c565b3460026000836020015173ffffffffffffffffffffffffffffffffffffffff1673ffffffffffffffffffffffffffffffffffffffff16815260200190815260200160002054611ffb9190612d5d565b60026000836020015173ffffffffffffffffffffffffffffffffffffffff1673ffffffffffffffffffffffffffffffffffffffff1681526020019081526020016000208190555061206e7ff9269bb8967ad93d763bd4cf08b60824b59ad8f63c18c0baa59bb9cfe153bdcf60001b61299c565b600160008773ffffffffffffffffffffffffffffffffffffffff1673ffffffffffffffffffffffffffffffffffffffff16815260200190815260200160002060008681526020019081526020016000206000808201600090556001820160006101000a81549073ffffffffffffffffffffffffffffffffffffffff0219169055505061211c7fdc68873135bc968c36c7b6d60fe1b752a61597ba02dd5fd7bb8a2eb3255539b160001b61299c565b6121487fb5eff12f97931c6c1a5b93c724933a1d9aca879f1dcee448821fd9598b07b3fd60001b61299c565b8573ffffffffffffffffffffffffffffffffffffffff166342842e0e826020015133886040518463ffffffff1660e01b815260040161218993929190612db3565b600060405180830381600087803b1580156121a357600080fd5b505af11580156121b7573d6000803e3d6000fd5b505050506121e77f2116613d8fc29438f68a6124bc639fec35ec06f5e8bb7f2ec3c584d921665fb860001b61299c565b6122137f852a95a88d2873583d0a4b9634ec605799d8a8eea36055bd9324b879108b036760001b61299c565b848673ffffffffffffffffffffffffffffffffffffffff163373ffffffffffffffffffffffffffffffffffffffff167f263223b1dd81e51054a4e6f791d45a4a1ddb4aadcd93a2dfd892615c3fdac18784600001516040516122759190612af7565b60405180910390a45050505060016000819055505050565b8181336122bc7f73a171da1bd5a86809ee4ffa3881d677b720611291d45f698b9a59f7b591cf7c60001b61299c565b6122e87f7633b3412ee93419566c55a22d85fcd4af8f12622b5c67ad6d8c47b79478f64a60001b61299c565b6123147f5641320b344a589f83234a9a7ea7081b3ede91884ca8bfc3e9e869a9504b3cb160001b61299c565b60008390506123457feee16dc6fd977215136e0b06dc04c1ff65683acc0045fb93eb567e68ffa13c0760001b61299c565b6123717f4e7999b461672f302880d0cae33d470b24a905e6fa9258b4043b558b9518715260001b61299c565b60008173ffffffffffffffffffffffffffffffffffffffff16636352211e856040518263ffffffff1660e01b81526004016123ac9190612af7565b60206040518083038186803b1580156123c457600080fd5b505afa1580156123d8573d6000803e3d6000fd5b505050506040513d601f19601f820116820180604052508101906123fc9190612c07565b905061242a7fadbbfa77f3668d91979747833da47fb58d7986413f6ea5ede6bf2c1d288730a860001b61299c565b6124567f4693269ddcbbf3917a96ed5be5b9fd7b47d15ea346e3f0ee296edf9a80900a2960001b61299c565b8073ffffffffffffffffffffffffffffffffffffffff168373ffffffffffffffffffffffffffffffffffffffff1614612513576124b57f345d3bab66cff43e74f9139b8ec7fafba0ac68ddf8385d03583c6514217c6d8560001b61299c565b6124e17f53f9460763f2b3c3df560cdaf5f646b0d0e79ab1d885ca6ff91d2d1eac75003660001b61299c565b6040517f94953b6000000000000000000000000000000000000000000000000000000000815260040160405180910390fd5b61253f7fa5ca2397fbb88c9c5d804792503658eb4bdf1282e159a6b914a217431462acbb60001b61299c565b61256b7f5f4bee125d4b9cf0cdc2d72ebda79319f5f1a70ee2a16c034b63f073e914128b60001b61299c565b86866125997fc519e775e29f2beb3f2090197ece93eb7c9773a573f4d9e107c44d37dd8c8eca60001b61299c565b6125c57f81b669a7f03ec757318db63f359d801165ff15513aa6b71d853f17a54715587d60001b61299c565b6125f17f475d5158df0daf715ad52a2283eff48166f5739badd55f044710ec0e3186464560001b61299c565b6000600160008473ffffffffffffffffffffffffffffffffffffffff1673ffffffffffffffffffffffffffffffffffffffff1681526020019081526020016000206000838152602001908152602001600020604051806040016040529081600082015481526020016001820160009054906101000a900473ffffffffffffffffffffffffffffffffffffffff1673ffffffffffffffffffffffffffffffffffffffff1673ffffffffffffffffffffffffffffffffffffffff168152505090506126dc7f53feef8bf2b8c8c2c463a709d31445c7b4e3906a573cd6fa6c01eaf949821a4960001b61299c565b6127087f51748e20686fd506078df437ebbae97382072eb5bd5b23c98f5d33b0345a3bae60001b61299c565b60008160000151116127ab576127407fe81c8bffc7480f6d8a94cdc75f8efd9fd0c5f08d69e93cb552719eff880e011d60001b61299c565b61276c7f6bfb503c7ef3020687602048a975ea28d71af2543f656de8598a1b7f99404c3960001b61299c565b82826040517f6d350f220000000000000000000000000000000000000000000000000000000081526004016127a2929190612bc9565b60405180910390fd5b6127d77f844f137ef12d6a9d4076759bfa156db25dd7c7aa02d3922cd9a1d3fef1cab84b60001b61299c565b6128037f83e3943205c8f39a1a5fe71c96ab4ce2b274348613dde312784bf3839c6c99e460001b61299c565b61282f7faff041232e5b0f2bb4e77ceac07dfe3648d69868148483a831f1e1a39cd46c2660001b61299c565b61285b7ff55419b618d9b9e55cc72986a269ce2441be1f5df301f86e35ece74dff73107e60001b61299c565b600160008b73ffffffffffffffffffffffffffffffffffffffff1673ffffffffffffffffffffffffffffffffffffffff16815260200190815260200160002060008a81526020019081526020016000206000808201600090556001820160006101000a81549073ffffffffffffffffffffffffffffffffffffffff021916905550506129097fdf646358d902f52936d44575268f2a4ff1942670bcb2e58449e2ba6fa0c6693260001b61299c565b6129357f273487160e665d5deedccf85fbfc72323c4f11c916e87b84cc6057652e5bf89a60001b61299c565b888a73ffffffffffffffffffffffffffffffffffffffff163373ffffffffffffffffffffffffffffffffffffffff167fafbb223ce72219b6597689a4504d478bc445e0e829cd6f7bf117e49624980fdc60405160405180910390a450505050505050505050565b50565b604051806040016040528060008152602001600073ffffffffffffffffffffffffffffffffffffffff1681525090565b600080fd5b600073ffffffffffffffffffffffffffffffffffffffff82169050919050565b60006129ff826129d4565b9050919050565b612a0f816129f4565b8114612a1a57600080fd5b50565b600081359050612a2c81612a06565b92915050565b6000819050919050565b612a4581612a32565b8114612a5057600080fd5b50565b600081359050612a6281612a3c565b92915050565b600080600060608486031215612a8157612a806129cf565b5b6000612a8f86828701612a1d565b9350506020612aa086828701612a53565b9250506040612ab186828701612a53565b9150509250925092565b600060208284031215612ad157612ad06129cf565b5b6000612adf84828501612a1d565b91505092915050565b612af181612a32565b82525050565b6000602082019050612b0c6000830184612ae8565b92915050565b60008060408385031215612b2957612b286129cf565b5b6000612b3785828601612a1d565b9250506020612b4885828601612a53565b9150509250929050565b612b5b81612a32565b82525050565b612b6a816129f4565b82525050565b604082016000820151612b866000850182612b52565b506020820151612b996020850182612b61565b50505050565b6000604082019050612bb46000830184612b70565b92915050565b612bc3816129f4565b82525050565b6000604082019050612bde6000830185612bba565b612beb6020830184612ae8565b9392505050565b600081519050612c0181612a06565b92915050565b600060208284031215612c1d57612c1c6129cf565b5b6000612c2b84828501612bf2565b91505092915050565b600081905092915050565b50565b6000612c4f600083612c34565b9150612c5a82612c3f565b600082019050919050565b6000612c7082612c42565b9150819050919050565b600082825260208201905092915050565b7f5265656e7472616e637947756172643a207265656e7472616e742063616c6c00600082015250565b6000612cc1601f83612c7a565b9150612ccc82612c8b565b602082019050919050565b60006020820190508181036000830152612cf081612cb4565b9050919050565b6000606082019050612d0c6000830186612bba565b612d196020830185612ae8565b612d266040830184612ae8565b949350505050565b7f4e487b7100000000000000000000000000000000000000000000000000000000600052601160045260246000fd5b6000612d6882612a32565b9150612d7383612a32565b9250827fffffffffffffffffffffffffffffffffffffffffffffffffffffffffffffffff03821115612da857612da7612d2e565b5b828201905092915050565b6000606082019050612dc86000830186612bba565b612dd56020830185612bba565b612de26040830184612ae8565b94935050505056fea26469706673582212206f8a8a822daad683956b047d9f1d8e19dcf2a3c1bc1a4144605027434e407b2e64736f6c63430008080033",
          "opcodes": "PUSH1 0x80 PUSH1 0x40 MSTORE CALLVALUE DUP1 ISZERO PUSH2 0x10 JUMPI PUSH1 0x0 DUP1 REVERT JUMPDEST POP PUSH1 0x1 PUSH1 0x0 DUP2 SWAP1 SSTORE POP PUSH2 0x4B PUSH32 0x8CD55033976715DC98391B450E04D56BA4B64371C48BD324926A7FBEC319DA4 PUSH1 0x0 SHL PUSH2 0x50 PUSH1 0x20 SHL PUSH1 0x20 SHR JUMP JUMPDEST PUSH2 0x53 JUMP JUMPDEST POP JUMP JUMPDEST PUSH2 0x2E20 DUP1 PUSH3 0x63 PUSH1 0x0 CODECOPY PUSH1 0x0 RETURN INVALID PUSH1 0x80 PUSH1 0x40 MSTORE PUSH1 0x4 CALLDATASIZE LT PUSH2 0x70 JUMPI PUSH1 0x0 CALLDATALOAD PUSH1 0xE0 SHR DUP1 PUSH4 0x89BFD38F GT PUSH2 0x4E JUMPI DUP1 PUSH4 0x89BFD38F EQ PUSH2 0x118 JUMPI DUP1 PUSH4 0x9038E693 EQ PUSH2 0x141 JUMPI DUP1 PUSH4 0x9F37092A EQ PUSH2 0x158 JUMPI DUP1 PUSH4 0xB2DDEE06 EQ PUSH2 0x174 JUMPI PUSH2 0x70 JUMP JUMPDEST DUP1 PUSH4 0x10447FD5 EQ PUSH2 0x75 JUMPI DUP1 PUSH4 0x30CFEDA9 EQ PUSH2 0x9E JUMPI DUP1 PUSH4 0x88700D1C EQ PUSH2 0xDB JUMPI JUMPDEST PUSH1 0x0 DUP1 REVERT JUMPDEST CALLVALUE DUP1 ISZERO PUSH2 0x81 JUMPI PUSH1 0x0 DUP1 REVERT JUMPDEST POP PUSH2 0x9C PUSH1 0x4 DUP1 CALLDATASIZE SUB DUP2 ADD SWAP1 PUSH2 0x97 SWAP2 SWAP1 PUSH2 0x2A68 JUMP JUMPDEST PUSH2 0x19D JUMP JUMPDEST STOP JUMPDEST CALLVALUE DUP1 ISZERO PUSH2 0xAA JUMPI PUSH1 0x0 DUP1 REVERT JUMPDEST POP PUSH2 0xC5 PUSH1 0x4 DUP1 CALLDATASIZE SUB DUP2 ADD SWAP1 PUSH2 0xC0 SWAP2 SWAP1 PUSH2 0x2ABB JUMP JUMPDEST PUSH2 0x8BA JUMP JUMPDEST PUSH1 0x40 MLOAD PUSH2 0xD2 SWAP2 SWAP1 PUSH2 0x2AF7 JUMP JUMPDEST PUSH1 0x40 MLOAD DUP1 SWAP2 SUB SWAP1 RETURN JUMPDEST CALLVALUE DUP1 ISZERO PUSH2 0xE7 JUMPI PUSH1 0x0 DUP1 REVERT JUMPDEST POP PUSH2 0x102 PUSH1 0x4 DUP1 CALLDATASIZE SUB DUP2 ADD SWAP1 PUSH2 0xFD SWAP2 SWAP1 PUSH2 0x2B12 JUMP JUMPDEST PUSH2 0x986 JUMP JUMPDEST PUSH1 0x40 MLOAD PUSH2 0x10F SWAP2 SWAP1 PUSH2 0x2B9F JUMP JUMPDEST PUSH1 0x40 MLOAD DUP1 SWAP2 SUB SWAP1 RETURN JUMPDEST CALLVALUE DUP1 ISZERO PUSH2 0x124 JUMPI PUSH1 0x0 DUP1 REVERT JUMPDEST POP PUSH2 0x13F PUSH1 0x4 DUP1 CALLDATASIZE SUB DUP2 ADD SWAP1 PUSH2 0x13A SWAP2 SWAP1 PUSH2 0x2A68 JUMP JUMPDEST PUSH2 0xAD4 JUMP JUMPDEST STOP JUMPDEST CALLVALUE DUP1 ISZERO PUSH2 0x14D JUMPI PUSH1 0x0 DUP1 REVERT JUMPDEST POP PUSH2 0x156 PUSH2 0x15A8 JUMP JUMPDEST STOP JUMPDEST PUSH2 0x172 PUSH1 0x4 DUP1 CALLDATASIZE SUB DUP2 ADD SWAP1 PUSH2 0x16D SWAP2 SWAP1 PUSH2 0x2B12 JUMP JUMPDEST PUSH2 0x19FE JUMP JUMPDEST STOP JUMPDEST CALLVALUE DUP1 ISZERO PUSH2 0x180 JUMPI PUSH1 0x0 DUP1 REVERT JUMPDEST POP PUSH2 0x19B PUSH1 0x4 DUP1 CALLDATASIZE SUB DUP2 ADD SWAP1 PUSH2 0x196 SWAP2 SWAP1 PUSH2 0x2B12 JUMP JUMPDEST PUSH2 0x228D JUMP JUMPDEST STOP JUMPDEST DUP3 DUP3 PUSH2 0x1CB PUSH32 0xC519E775E29F2BEB3F2090197ECE93EB7C9773A573F4D9E107C44D37DD8C8ECA PUSH1 0x0 SHL PUSH2 0x299C JUMP JUMPDEST PUSH2 0x1F7 PUSH32 0x81B669A7F03EC757318DB63F359D801165FF15513AA6B71D853F17A54715587D PUSH1 0x0 SHL PUSH2 0x299C JUMP JUMPDEST PUSH2 0x223 PUSH32 0x475D5158DF0DAF715AD52A2283EFF48166F5739BADD55F044710EC0E31864645 PUSH1 0x0 SHL PUSH2 0x299C JUMP JUMPDEST PUSH1 0x0 PUSH1 0x1 PUSH1 0x0 DUP5 PUSH20 0xFFFFFFFFFFFFFFFFFFFFFFFFFFFFFFFFFFFFFFFF AND PUSH20 0xFFFFFFFFFFFFFFFFFFFFFFFFFFFFFFFFFFFFFFFF AND DUP2 MSTORE PUSH1 0x20 ADD SWAP1 DUP2 MSTORE PUSH1 0x20 ADD PUSH1 0x0 KECCAK256 PUSH1 0x0 DUP4 DUP2 MSTORE PUSH1 0x20 ADD SWAP1 DUP2 MSTORE PUSH1 0x20 ADD PUSH1 0x0 KECCAK256 PUSH1 0x40 MLOAD DUP1 PUSH1 0x40 ADD PUSH1 0x40 MSTORE SWAP1 DUP2 PUSH1 0x0 DUP3 ADD SLOAD DUP2 MSTORE PUSH1 0x20 ADD PUSH1 0x1 DUP3 ADD PUSH1 0x0 SWAP1 SLOAD SWAP1 PUSH2 0x100 EXP SWAP1 DIV PUSH20 0xFFFFFFFFFFFFFFFFFFFFFFFFFFFFFFFFFFFFFFFF AND PUSH20 0xFFFFFFFFFFFFFFFFFFFFFFFFFFFFFFFFFFFFFFFF AND PUSH20 0xFFFFFFFFFFFFFFFFFFFFFFFFFFFFFFFFFFFFFFFF AND DUP2 MSTORE POP POP SWAP1 POP PUSH2 0x30E PUSH32 0x53FEEF8BF2B8C8C2C463A709D31445C7B4E3906A573CD6FA6C01EAF949821A49 PUSH1 0x0 SHL PUSH2 0x299C JUMP JUMPDEST PUSH2 0x33A PUSH32 0x51748E20686FD506078DF437EBBAE97382072EB5BD5B23C98F5D33B0345A3BAE PUSH1 0x0 SHL PUSH2 0x299C JUMP JUMPDEST PUSH1 0x0 DUP2 PUSH1 0x0 ADD MLOAD GT PUSH2 0x3DD JUMPI PUSH2 0x372 PUSH32 0xE81C8BFFC7480F6D8A94CDC75F8EFD9FD0C5F08D69E93CB552719EFF880E011D PUSH1 0x0 SHL PUSH2 0x299C JUMP JUMPDEST PUSH2 0x39E PUSH32 0x6BFB503C7EF3020687602048A975EA28D71AF2543F656DE8598A1B7F99404C39 PUSH1 0x0 SHL PUSH2 0x299C JUMP JUMPDEST DUP3 DUP3 PUSH1 0x40 MLOAD PUSH32 0x6D350F2200000000000000000000000000000000000000000000000000000000 DUP2 MSTORE PUSH1 0x4 ADD PUSH2 0x3D4 SWAP3 SWAP2 SWAP1 PUSH2 0x2BC9 JUMP JUMPDEST PUSH1 0x40 MLOAD DUP1 SWAP2 SUB SWAP1 REVERT JUMPDEST PUSH2 0x409 PUSH32 0x844F137EF12D6A9D4076759BFA156DB25DD7C7AA02D3922CD9A1D3FEF1CAB84B PUSH1 0x0 SHL PUSH2 0x299C JUMP JUMPDEST PUSH2 0x435 PUSH32 0x83E3943205C8F39A1A5FE71C96AB4CE2B274348613DDE312784BF3839C6C99E4 PUSH1 0x0 SHL PUSH2 0x299C JUMP JUMPDEST DUP6 DUP6 CALLER PUSH2 0x464 PUSH32 0x73A171DA1BD5A86809EE4FFA3881D677B720611291D45F698B9A59F7B591CF7C PUSH1 0x0 SHL PUSH2 0x299C JUMP JUMPDEST PUSH2 0x490 PUSH32 0x7633B3412EE93419566C55A22D85FCD4AF8F12622B5C67AD6D8C47B79478F64A PUSH1 0x0 SHL PUSH2 0x299C JUMP JUMPDEST PUSH2 0x4BC PUSH32 0x5641320B344A589F83234A9A7EA7081B3EDE91884CA8BFC3E9E869A9504B3CB1 PUSH1 0x0 SHL PUSH2 0x299C JUMP JUMPDEST PUSH1 0x0 DUP4 SWAP1 POP PUSH2 0x4ED PUSH32 0xEEE16DC6FD977215136E0B06DC04C1FF65683ACC0045FB93EB567E68FFA13C07 PUSH1 0x0 SHL PUSH2 0x299C JUMP JUMPDEST PUSH2 0x519 PUSH32 0x4E7999B461672F302880D0CAE33D470B24A905E6FA9258B4043B558B95187152 PUSH1 0x0 SHL PUSH2 0x299C JUMP JUMPDEST PUSH1 0x0 DUP2 PUSH20 0xFFFFFFFFFFFFFFFFFFFFFFFFFFFFFFFFFFFFFFFF AND PUSH4 0x6352211E DUP6 PUSH1 0x40 MLOAD DUP3 PUSH4 0xFFFFFFFF AND PUSH1 0xE0 SHL DUP2 MSTORE PUSH1 0x4 ADD PUSH2 0x554 SWAP2 SWAP1 PUSH2 0x2AF7 JUMP JUMPDEST PUSH1 0x20 PUSH1 0x40 MLOAD DUP1 DUP4 SUB DUP2 DUP7 DUP1 EXTCODESIZE ISZERO DUP1 ISZERO PUSH2 0x56C JUMPI PUSH1 0x0 DUP1 REVERT JUMPDEST POP GAS STATICCALL ISZERO DUP1 ISZERO PUSH2 0x580 JUMPI RETURNDATASIZE PUSH1 0x0 DUP1 RETURNDATACOPY RETURNDATASIZE PUSH1 0x0 REVERT JUMPDEST POP POP POP POP PUSH1 0x40 MLOAD RETURNDATASIZE PUSH1 0x1F NOT PUSH1 0x1F DUP3 ADD AND DUP3 ADD DUP1 PUSH1 0x40 MSTORE POP DUP2 ADD SWAP1 PUSH2 0x5A4 SWAP2 SWAP1 PUSH2 0x2C07 JUMP JUMPDEST SWAP1 POP PUSH2 0x5D2 PUSH32 0xADBBFA77F3668D91979747833DA47FB58D7986413F6EA5EDE6BF2C1D288730A8 PUSH1 0x0 SHL PUSH2 0x299C JUMP JUMPDEST PUSH2 0x5FE PUSH32 0x4693269DDCBBF3917A96ED5BE5B9FD7B47D15EA346E3F0EE296EDF9A80900A29 PUSH1 0x0 SHL PUSH2 0x299C JUMP JUMPDEST DUP1 PUSH20 0xFFFFFFFFFFFFFFFFFFFFFFFFFFFFFFFFFFFFFFFF AND DUP4 PUSH20 0xFFFFFFFFFFFFFFFFFFFFFFFFFFFFFFFFFFFFFFFF AND EQ PUSH2 0x6BB JUMPI PUSH2 0x65D PUSH32 0x345D3BAB66CFF43E74F9139B8EC7FAFBA0AC68DDF8385D03583C6514217C6D85 PUSH1 0x0 SHL PUSH2 0x299C JUMP JUMPDEST PUSH2 0x689 PUSH32 0x53F9460763F2B3C3DF560CDAF5F646B0D0E79AB1D885CA6FF91D2D1EAC750036 PUSH1 0x0 SHL PUSH2 0x299C JUMP JUMPDEST PUSH1 0x40 MLOAD PUSH32 0x94953B6000000000000000000000000000000000000000000000000000000000 DUP2 MSTORE PUSH1 0x4 ADD PUSH1 0x40 MLOAD DUP1 SWAP2 SUB SWAP1 REVERT JUMPDEST PUSH2 0x6E7 PUSH32 0xA5CA2397FBB88C9C5D804792503658EB4BDF1282E159A6B914A217431462ACBB PUSH1 0x0 SHL PUSH2 0x299C JUMP JUMPDEST PUSH2 0x713 PUSH32 0x5F4BEE125D4B9CF0CDC2D72EBDA79319F5F1A70EE2A16C034B63F073E914128B PUSH1 0x0 SHL PUSH2 0x299C JUMP JUMPDEST PUSH2 0x73F PUSH32 0x905D03F0CBA920910C25439C8329D17A7812DA5DD462F44E00C730C19D006A50 PUSH1 0x0 SHL PUSH2 0x299C JUMP JUMPDEST PUSH2 0x76B PUSH32 0xB55A455F736189F9F627274EC6F0E887AD57C57E0A5BBBF4111B94DFC5420B43 PUSH1 0x0 SHL PUSH2 0x299C JUMP JUMPDEST PUSH2 0x797 PUSH32 0x7D2A6DBE493B3C5563304FEE164985D8353597C4159D815646B9602793D078E6 PUSH1 0x0 SHL PUSH2 0x299C JUMP JUMPDEST DUP9 PUSH1 0x1 PUSH1 0x0 DUP14 PUSH20 0xFFFFFFFFFFFFFFFFFFFFFFFFFFFFFFFFFFFFFFFF AND PUSH20 0xFFFFFFFFFFFFFFFFFFFFFFFFFFFFFFFFFFFFFFFF AND DUP2 MSTORE PUSH1 0x20 ADD SWAP1 DUP2 MSTORE PUSH1 0x20 ADD PUSH1 0x0 KECCAK256 PUSH1 0x0 DUP13 DUP2 MSTORE PUSH1 0x20 ADD SWAP1 DUP2 MSTORE PUSH1 0x20 ADD PUSH1 0x0 KECCAK256 PUSH1 0x0 ADD DUP2 SWAP1 SSTORE POP PUSH2 0x81B PUSH32 0xD43EDBFFF49056AF14E644890796B11D59D44E2362A5574510741A9CC93B4E17 PUSH1 0x0 SHL PUSH2 0x299C JUMP JUMPDEST PUSH2 0x847 PUSH32 0xA581C3A772A576ABC9AFFB6EFF07294D8D2092030FFA192E3FEE7E5CC2E556EB PUSH1 0x0 SHL PUSH2 0x299C JUMP JUMPDEST DUP10 DUP12 PUSH20 0xFFFFFFFFFFFFFFFFFFFFFFFFFFFFFFFFFFFFFFFF AND CALLER PUSH20 0xFFFFFFFFFFFFFFFFFFFFFFFFFFFFFFFFFFFFFFFF AND PUSH32 0xD547E933094F12A9159076970143EBE73234E64480317844B0DCB36117116DE4 DUP13 PUSH1 0x40 MLOAD PUSH2 0x8A5 SWAP2 SWAP1 PUSH2 0x2AF7 JUMP JUMPDEST PUSH1 0x40 MLOAD DUP1 SWAP2 SUB SWAP1 LOG4 POP POP POP POP POP POP POP POP POP POP POP JUMP JUMPDEST PUSH1 0x0 PUSH2 0x8E7 PUSH31 0x3500F8A53F4C390B828D535ECE7F7A3187252D0D676F99118B22C9EB672E42 PUSH1 0x0 SHL PUSH2 0x299C JUMP JUMPDEST PUSH2 0x913 PUSH32 0x3E60842493028F8B10BB7B795B6E9E120572D19A82EAE143C2B687643F9C9698 PUSH1 0x0 SHL PUSH2 0x299C JUMP JUMPDEST PUSH2 0x93F PUSH32 0x5905D97B5A39D87270EFB3A76AA21C121F4284BB19428564F8B529696817E31A PUSH1 0x0 SHL PUSH2 0x299C JUMP JUMPDEST PUSH1 0x2 PUSH1 0x0 DUP4 PUSH20 0xFFFFFFFFFFFFFFFFFFFFFFFFFFFFFFFFFFFFFFFF AND PUSH20 0xFFFFFFFFFFFFFFFFFFFFFFFFFFFFFFFFFFFFFFFF AND DUP2 MSTORE PUSH1 0x20 ADD SWAP1 DUP2 MSTORE PUSH1 0x20 ADD PUSH1 0x0 KECCAK256 SLOAD SWAP1 POP SWAP2 SWAP1 POP JUMP JUMPDEST PUSH2 0x98E PUSH2 0x299F JUMP JUMPDEST PUSH2 0x9BA PUSH32 0x7A2012B57C57CC1EF8E3EF7EA3137ECE216F44AF55CC35F65FDE8DA5F07022E1 PUSH1 0x0 SHL PUSH2 0x299C JUMP JUMPDEST PUSH2 0x9E6 PUSH32 0x4983357291750F22EB870E4BC5EDA578F1E29C6588D2F311A784F9D7AE5DBA02 PUSH1 0x0 SHL PUSH2 0x299C JUMP JUMPDEST PUSH2 0xA11 PUSH31 0xE90C4E9F6DBFDA7EBFE8E396FE678B4042DCA42370498EFBBCF477D8A63F45 PUSH1 0x0 SHL PUSH2 0x299C JUMP JUMPDEST PUSH1 0x1 PUSH1 0x0 DUP5 PUSH20 0xFFFFFFFFFFFFFFFFFFFFFFFFFFFFFFFFFFFFFFFF AND PUSH20 0xFFFFFFFFFFFFFFFFFFFFFFFFFFFFFFFFFFFFFFFF AND DUP2 MSTORE PUSH1 0x20 ADD SWAP1 DUP2 MSTORE PUSH1 0x20 ADD PUSH1 0x0 KECCAK256 PUSH1 0x0 DUP4 DUP2 MSTORE PUSH1 0x20 ADD SWAP1 DUP2 MSTORE PUSH1 0x20 ADD PUSH1 0x0 KECCAK256 PUSH1 0x40 MLOAD DUP1 PUSH1 0x40 ADD PUSH1 0x40 MSTORE SWAP1 DUP2 PUSH1 0x0 DUP3 ADD SLOAD DUP2 MSTORE PUSH1 0x20 ADD PUSH1 0x1 DUP3 ADD PUSH1 0x0 SWAP1 SLOAD SWAP1 PUSH2 0x100 EXP SWAP1 DIV PUSH20 0xFFFFFFFFFFFFFFFFFFFFFFFFFFFFFFFFFFFFFFFF AND PUSH20 0xFFFFFFFFFFFFFFFFFFFFFFFFFFFFFFFFFFFFFFFF AND PUSH20 0xFFFFFFFFFFFFFFFFFFFFFFFFFFFFFFFFFFFFFFFF AND DUP2 MSTORE POP POP SWAP1 POP SWAP3 SWAP2 POP POP JUMP JUMPDEST DUP3 DUP3 CALLER PUSH2 0xB03 PUSH32 0xBC0A5E6C542015FAEFDED3E95913E972A094CDE06FA65FEECFE88D5296CDEFC4 PUSH1 0x0 SHL PUSH2 0x299C JUMP JUMPDEST PUSH2 0xB2F PUSH32 0x126C51F6BDEF38D6F64C9B990F6D198517F47590FFC8814433A63781E94659BD PUSH1 0x0 SHL PUSH2 0x299C JUMP JUMPDEST PUSH2 0xB5B PUSH32 0x578B33E2318F04A0D936A10864B9E9D634E8E393CE67C72EF9B0039FDF0FEDA4 PUSH1 0x0 SHL PUSH2 0x299C JUMP JUMPDEST PUSH1 0x0 PUSH1 0x1 PUSH1 0x0 DUP6 PUSH20 0xFFFFFFFFFFFFFFFFFFFFFFFFFFFFFFFFFFFFFFFF AND PUSH20 0xFFFFFFFFFFFFFFFFFFFFFFFFFFFFFFFFFFFFFFFF AND DUP2 MSTORE PUSH1 0x20 ADD SWAP1 DUP2 MSTORE PUSH1 0x20 ADD PUSH1 0x0 KECCAK256 PUSH1 0x0 DUP5 DUP2 MSTORE PUSH1 0x20 ADD SWAP1 DUP2 MSTORE PUSH1 0x20 ADD PUSH1 0x0 KECCAK256 PUSH1 0x40 MLOAD DUP1 PUSH1 0x40 ADD PUSH1 0x40 MSTORE SWAP1 DUP2 PUSH1 0x0 DUP3 ADD SLOAD DUP2 MSTORE PUSH1 0x20 ADD PUSH1 0x1 DUP3 ADD PUSH1 0x0 SWAP1 SLOAD SWAP1 PUSH2 0x100 EXP SWAP1 DIV PUSH20 0xFFFFFFFFFFFFFFFFFFFFFFFFFFFFFFFFFFFFFFFF AND PUSH20 0xFFFFFFFFFFFFFFFFFFFFFFFFFFFFFFFFFFFFFFFF AND PUSH20 0xFFFFFFFFFFFFFFFFFFFFFFFFFFFFFFFFFFFFFFFF AND DUP2 MSTORE POP POP SWAP1 POP PUSH2 0xC46 PUSH32 0x24F0C7CEE8B08B5BE2C23C1E64A27C3D79827E75E695F98D7C7E0071F9DD9F15 PUSH1 0x0 SHL PUSH2 0x299C JUMP JUMPDEST PUSH2 0xC72 PUSH32 0x893B055DB7A89B68E6BC2599D59B1EDDCAD65D3BA953592C425FE18536326C03 PUSH1 0x0 SHL PUSH2 0x299C JUMP JUMPDEST PUSH1 0x0 DUP2 PUSH1 0x0 ADD MLOAD GT ISZERO PUSH2 0xD16 JUMPI PUSH2 0xCAB PUSH32 0xB3B6A9C4B728CFF57095F60B1005BF6962FFE7B628BA199DDE0098B407C867F8 PUSH1 0x0 SHL PUSH2 0x299C JUMP JUMPDEST PUSH2 0xCD7 PUSH32 0xDCD35E35C080B25CA2936C2E24F11452CD3B12B1FB1E27246863E7D4F8B568C4 PUSH1 0x0 SHL PUSH2 0x299C JUMP JUMPDEST DUP4 DUP4 PUSH1 0x40 MLOAD PUSH32 0xC2F0D70900000000000000000000000000000000000000000000000000000000 DUP2 MSTORE PUSH1 0x4 ADD PUSH2 0xD0D SWAP3 SWAP2 SWAP1 PUSH2 0x2BC9 JUMP JUMPDEST PUSH1 0x40 MLOAD DUP1 SWAP2 SUB SWAP1 REVERT JUMPDEST PUSH2 0xD42 PUSH32 0xB2A5828C0A867CF901E2A9BEE4CFFA56D8870E1CDAABACD9C46D6BB2D909186A PUSH1 0x0 SHL PUSH2 0x299C JUMP JUMPDEST PUSH2 0xD6E PUSH32 0x39CECD5302E866439FFAC0E61A39339FB61B1195B4102465BCF24F0AD8ECE692 PUSH1 0x0 SHL PUSH2 0x299C JUMP JUMPDEST DUP7 DUP7 CALLER PUSH2 0xD9D PUSH32 0x73A171DA1BD5A86809EE4FFA3881D677B720611291D45F698B9A59F7B591CF7C PUSH1 0x0 SHL PUSH2 0x299C JUMP JUMPDEST PUSH2 0xDC9 PUSH32 0x7633B3412EE93419566C55A22D85FCD4AF8F12622B5C67AD6D8C47B79478F64A PUSH1 0x0 SHL PUSH2 0x299C JUMP JUMPDEST PUSH2 0xDF5 PUSH32 0x5641320B344A589F83234A9A7EA7081B3EDE91884CA8BFC3E9E869A9504B3CB1 PUSH1 0x0 SHL PUSH2 0x299C JUMP JUMPDEST PUSH1 0x0 DUP4 SWAP1 POP PUSH2 0xE26 PUSH32 0xEEE16DC6FD977215136E0B06DC04C1FF65683ACC0045FB93EB567E68FFA13C07 PUSH1 0x0 SHL PUSH2 0x299C JUMP JUMPDEST PUSH2 0xE52 PUSH32 0x4E7999B461672F302880D0CAE33D470B24A905E6FA9258B4043B558B95187152 PUSH1 0x0 SHL PUSH2 0x299C JUMP JUMPDEST PUSH1 0x0 DUP2 PUSH20 0xFFFFFFFFFFFFFFFFFFFFFFFFFFFFFFFFFFFFFFFF AND PUSH4 0x6352211E DUP6 PUSH1 0x40 MLOAD DUP3 PUSH4 0xFFFFFFFF AND PUSH1 0xE0 SHL DUP2 MSTORE PUSH1 0x4 ADD PUSH2 0xE8D SWAP2 SWAP1 PUSH2 0x2AF7 JUMP JUMPDEST PUSH1 0x20 PUSH1 0x40 MLOAD DUP1 DUP4 SUB DUP2 DUP7 DUP1 EXTCODESIZE ISZERO DUP1 ISZERO PUSH2 0xEA5 JUMPI PUSH1 0x0 DUP1 REVERT JUMPDEST POP GAS STATICCALL ISZERO DUP1 ISZERO PUSH2 0xEB9 JUMPI RETURNDATASIZE PUSH1 0x0 DUP1 RETURNDATACOPY RETURNDATASIZE PUSH1 0x0 REVERT JUMPDEST POP POP POP POP PUSH1 0x40 MLOAD RETURNDATASIZE PUSH1 0x1F NOT PUSH1 0x1F DUP3 ADD AND DUP3 ADD DUP1 PUSH1 0x40 MSTORE POP DUP2 ADD SWAP1 PUSH2 0xEDD SWAP2 SWAP1 PUSH2 0x2C07 JUMP JUMPDEST SWAP1 POP PUSH2 0xF0B PUSH32 0xADBBFA77F3668D91979747833DA47FB58D7986413F6EA5EDE6BF2C1D288730A8 PUSH1 0x0 SHL PUSH2 0x299C JUMP JUMPDEST PUSH2 0xF37 PUSH32 0x4693269DDCBBF3917A96ED5BE5B9FD7B47D15EA346E3F0EE296EDF9A80900A29 PUSH1 0x0 SHL PUSH2 0x299C JUMP JUMPDEST DUP1 PUSH20 0xFFFFFFFFFFFFFFFFFFFFFFFFFFFFFFFFFFFFFFFF AND DUP4 PUSH20 0xFFFFFFFFFFFFFFFFFFFFFFFFFFFFFFFFFFFFFFFF AND EQ PUSH2 0xFF4 JUMPI PUSH2 0xF96 PUSH32 0x345D3BAB66CFF43E74F9139B8EC7FAFBA0AC68DDF8385D03583C6514217C6D85 PUSH1 0x0 SHL PUSH2 0x299C JUMP JUMPDEST PUSH2 0xFC2 PUSH32 0x53F9460763F2B3C3DF560CDAF5F646B0D0E79AB1D885CA6FF91D2D1EAC750036 PUSH1 0x0 SHL PUSH2 0x299C JUMP JUMPDEST PUSH1 0x40 MLOAD PUSH32 0x94953B6000000000000000000000000000000000000000000000000000000000 DUP2 MSTORE PUSH1 0x4 ADD PUSH1 0x40 MLOAD DUP1 SWAP2 SUB SWAP1 REVERT JUMPDEST PUSH2 0x1020 PUSH32 0xA5CA2397FBB88C9C5D804792503658EB4BDF1282E159A6B914A217431462ACBB PUSH1 0x0 SHL PUSH2 0x299C JUMP JUMPDEST PUSH2 0x104C PUSH32 0x5F4BEE125D4B9CF0CDC2D72EBDA79319F5F1A70EE2A16C034B63F073E914128B PUSH1 0x0 SHL PUSH2 0x299C JUMP JUMPDEST PUSH2 0x1078 PUSH32 0x1FC14F499C7BEA5E490F6CAD2461AF767B8F6E5DC6D827C7CEDD1EC57B4D342B PUSH1 0x0 SHL PUSH2 0x299C JUMP JUMPDEST PUSH2 0x10A4 PUSH32 0x933C943774E5004E49E94AC3478F6CA1EE3C10F58499ECDEE98B36D0049F87DE PUSH1 0x0 SHL PUSH2 0x299C JUMP JUMPDEST PUSH2 0x10D0 PUSH32 0x6035201F58F080402078F74A91C8E92C8DB72DD8DB73C260DC7C164D941A37B4 PUSH1 0x0 SHL PUSH2 0x299C JUMP JUMPDEST PUSH1 0x0 DUP11 GT PUSH2 0x1162 JUMPI PUSH2 0x1104 PUSH32 0xC88702F0F2BD10F5F7F73B9797D211F85A3A0CFD41CC518B310DA8483756CF8 PUSH1 0x0 SHL PUSH2 0x299C JUMP JUMPDEST PUSH2 0x1130 PUSH32 0x5BB6212249014ED1E14387282FAB7BC56B401A4738FA872EDBA72530DF1C48FC PUSH1 0x0 SHL PUSH2 0x299C JUMP JUMPDEST PUSH1 0x40 MLOAD PUSH32 0x96D7ECF00000000000000000000000000000000000000000000000000000000 DUP2 MSTORE PUSH1 0x4 ADD PUSH1 0x40 MLOAD DUP1 SWAP2 SUB SWAP1 REVERT JUMPDEST PUSH2 0x118E PUSH32 0xCBA1C135B5AE2527DF5A4571A8AA7C7F505157A68EB7D51EDC0B11B42EC2DF2A PUSH1 0x0 SHL PUSH2 0x299C JUMP JUMPDEST PUSH2 0x11BA PUSH32 0x56845939DE63B7C3F1A1C180DD0FB0E7D8909FA2E78DEF0A55EE6F30B46E2B42 PUSH1 0x0 SHL PUSH2 0x299C JUMP JUMPDEST PUSH2 0x11E6 PUSH32 0xF24DF631FE8B92348C0D4052C84276DF47752CA785F2CD8D623B4A053F343C56 PUSH1 0x0 SHL PUSH2 0x299C JUMP JUMPDEST PUSH1 0x0 DUP13 SWAP1 POP PUSH2 0x1217 PUSH32 0xE63DF89A8B10369C9A9B5D21191EEBFA98800CAAB7FEF21C70388E229524A86C PUSH1 0x0 SHL PUSH2 0x299C JUMP JUMPDEST PUSH2 0x1243 PUSH32 0xFDA6DE3A92FBFA1F659F634B50A415A2AB9E6F31687CA0CF7EF1E2968288381A PUSH1 0x0 SHL PUSH2 0x299C JUMP JUMPDEST ADDRESS PUSH20 0xFFFFFFFFFFFFFFFFFFFFFFFFFFFFFFFFFFFFFFFF AND DUP2 PUSH20 0xFFFFFFFFFFFFFFFFFFFFFFFFFFFFFFFFFFFFFFFF AND PUSH4 0x81812FC DUP15 PUSH1 0x40 MLOAD DUP3 PUSH4 0xFFFFFFFF AND PUSH1 0xE0 SHL DUP2 MSTORE PUSH1 0x4 ADD PUSH2 0x1293 SWAP2 SWAP1 PUSH2 0x2AF7 JUMP JUMPDEST PUSH1 0x20 PUSH1 0x40 MLOAD DUP1 DUP4 SUB DUP2 DUP7 DUP1 EXTCODESIZE ISZERO DUP1 ISZERO PUSH2 0x12AB JUMPI PUSH1 0x0 DUP1 REVERT JUMPDEST POP GAS STATICCALL ISZERO DUP1 ISZERO PUSH2 0x12BF JUMPI RETURNDATASIZE PUSH1 0x0 DUP1 RETURNDATACOPY RETURNDATASIZE PUSH1 0x0 REVERT JUMPDEST POP POP POP POP PUSH1 0x40 MLOAD RETURNDATASIZE PUSH1 0x1F NOT PUSH1 0x1F DUP3 ADD AND DUP3 ADD DUP1 PUSH1 0x40 MSTORE POP DUP2 ADD SWAP1 PUSH2 0x12E3 SWAP2 SWAP1 PUSH2 0x2C07 JUMP JUMPDEST PUSH20 0xFFFFFFFFFFFFFFFFFFFFFFFFFFFFFFFFFFFFFFFF AND EQ PUSH2 0x1388 JUMPI PUSH2 0x132A PUSH32 0xFBA1CE91B994F899B13399718C1CB5E07B673876D106297E8F0880C7AE3B98C8 PUSH1 0x0 SHL PUSH2 0x299C JUMP JUMPDEST PUSH2 0x1356 PUSH32 0x4588C130FC830A995CC06742874A4B5238D5DF3ACA3902FE23D3E2C0FBB93879 PUSH1 0x0 SHL PUSH2 0x299C JUMP JUMPDEST PUSH1 0x40 MLOAD PUSH32 0x13E7D28D00000000000000000000000000000000000000000000000000000000 DUP2 MSTORE PUSH1 0x4 ADD PUSH1 0x40 MLOAD DUP1 SWAP2 SUB SWAP1 REVERT JUMPDEST PUSH2 0x13B4 PUSH32 0x15016426543F5ECCB04C0730D785A9F858AB0960D907429F58B62CEB8AFD548A PUSH1 0x0 SHL PUSH2 0x299C JUMP JUMPDEST PUSH2 0x13E0 PUSH32 0xB4C9A3E5DFD14A13E4CF499D3305859DAE4B842E86AFEFA6F47861DDB980448A PUSH1 0x0 SHL PUSH2 0x299C JUMP JUMPDEST PUSH2 0x140C PUSH32 0x6244A2806EEF7DCDA4E9E76B9100C2DDD11C74A7A1E432A344CBD522DBDC1585 PUSH1 0x0 SHL PUSH2 0x299C JUMP JUMPDEST PUSH1 0x40 MLOAD DUP1 PUSH1 0x40 ADD PUSH1 0x40 MSTORE DUP1 DUP13 DUP2 MSTORE PUSH1 0x20 ADD CALLER PUSH20 0xFFFFFFFFFFFFFFFFFFFFFFFFFFFFFFFFFFFFFFFF AND DUP2 MSTORE POP PUSH1 0x1 PUSH1 0x0 DUP16 PUSH20 0xFFFFFFFFFFFFFFFFFFFFFFFFFFFFFFFFFFFFFFFF AND PUSH20 0xFFFFFFFFFFFFFFFFFFFFFFFFFFFFFFFFFFFFFFFF AND DUP2 MSTORE PUSH1 0x20 ADD SWAP1 DUP2 MSTORE PUSH1 0x20 ADD PUSH1 0x0 KECCAK256 PUSH1 0x0 DUP15 DUP2 MSTORE PUSH1 0x20 ADD SWAP1 DUP2 MSTORE PUSH1 0x20 ADD PUSH1 0x0 KECCAK256 PUSH1 0x0 DUP3 ADD MLOAD DUP2 PUSH1 0x0 ADD SSTORE PUSH1 0x20 DUP3 ADD MLOAD DUP2 PUSH1 0x1 ADD PUSH1 0x0 PUSH2 0x100 EXP DUP2 SLOAD DUP2 PUSH20 0xFFFFFFFFFFFFFFFFFFFFFFFFFFFFFFFFFFFFFFFF MUL NOT AND SWAP1 DUP4 PUSH20 0xFFFFFFFFFFFFFFFFFFFFFFFFFFFFFFFFFFFFFFFF AND MUL OR SWAP1 SSTORE POP SWAP1 POP POP PUSH2 0x1507 PUSH32 0x14F0041B7897D5A154094655794C09770E30A892F555EBA106D5BA9ECBEF8907 PUSH1 0x0 SHL PUSH2 0x299C JUMP JUMPDEST PUSH2 0x1533 PUSH32 0x47A999B1D1CF94F8FE7D15DC567AA2D9A5E129CE001E28E54EF0475E93AA8F49 PUSH1 0x0 SHL PUSH2 0x299C JUMP JUMPDEST DUP12 DUP14 PUSH20 0xFFFFFFFFFFFFFFFFFFFFFFFFFFFFFFFFFFFFFFFF AND CALLER PUSH20 0xFFFFFFFFFFFFFFFFFFFFFFFFFFFFFFFFFFFFFFFF AND PUSH32 0xD547E933094F12A9159076970143EBE73234E64480317844B0DCB36117116DE4 DUP15 PUSH1 0x40 MLOAD PUSH2 0x1591 SWAP2 SWAP1 PUSH2 0x2AF7 JUMP JUMPDEST PUSH1 0x40 MLOAD DUP1 SWAP2 SUB SWAP1 LOG4 POP POP POP POP POP POP POP POP POP POP POP POP POP JUMP JUMPDEST PUSH2 0x15D4 PUSH32 0x44776A1CE164DC157C1C6DC2919837AC48F0D4093876BC7F1EFED10CD0FA72B6 PUSH1 0x0 SHL PUSH2 0x299C JUMP JUMPDEST PUSH2 0x1600 PUSH32 0x54E0D57E9D684F850FE51DDA09D0C6DA9E3E1F68B91EF57731A845434E86ACD6 PUSH1 0x0 SHL PUSH2 0x299C JUMP JUMPDEST PUSH2 0x162C PUSH32 0xFFC5EB37A10D71EDA85413CE4CD6217D097738C7AB52DACC306C5A0C50C16F4F PUSH1 0x0 SHL PUSH2 0x299C JUMP JUMPDEST PUSH1 0x0 PUSH1 0x2 PUSH1 0x0 CALLER PUSH20 0xFFFFFFFFFFFFFFFFFFFFFFFFFFFFFFFFFFFFFFFF AND PUSH20 0xFFFFFFFFFFFFFFFFFFFFFFFFFFFFFFFFFFFFFFFF AND DUP2 MSTORE PUSH1 0x20 ADD SWAP1 DUP2 MSTORE PUSH1 0x20 ADD PUSH1 0x0 KECCAK256 SLOAD SWAP1 POP PUSH2 0x169C PUSH32 0xFE1876D5BBBD5B60902727D8B02047D4EEDC7C71C406C60474BD5413FC7D6041 PUSH1 0x0 SHL PUSH2 0x299C JUMP JUMPDEST PUSH2 0x16C8 PUSH32 0x54B2BCDCBB31AE93A69422F32E869B2FF2CC51778CDB11C9B05874C8DBAE0E63 PUSH1 0x0 SHL PUSH2 0x299C JUMP JUMPDEST PUSH1 0x0 DUP2 GT PUSH2 0x175A JUMPI PUSH2 0x16FC PUSH32 0xC887348ABBC90E3D82F2D138796864F09A1B2703410A2F0D9F458C4F739D8E00 PUSH1 0x0 SHL PUSH2 0x299C JUMP JUMPDEST PUSH2 0x1728 PUSH32 0x243C9DD54C8CE7362E67DD336E83A5C257A94E7810F3018D538E9A5AD09C9F43 PUSH1 0x0 SHL PUSH2 0x299C JUMP JUMPDEST PUSH1 0x40 MLOAD PUSH32 0x668A7C4200000000000000000000000000000000000000000000000000000000 DUP2 MSTORE PUSH1 0x4 ADD PUSH1 0x40 MLOAD DUP1 SWAP2 SUB SWAP1 REVERT JUMPDEST PUSH2 0x1786 PUSH32 0x57CE130A4F1691524CC315F5733FCA3981E4859A3B7875B92B243150092E0AC9 PUSH1 0x0 SHL PUSH2 0x299C JUMP JUMPDEST PUSH2 0x17B2 PUSH32 0xE5D39BD041BF45D9167FED41CF71EDB3A3920590FE615EE4881D7FF15C431715 PUSH1 0x0 SHL PUSH2 0x299C JUMP JUMPDEST PUSH2 0x17DE PUSH32 0x28CD535D3E6AD2F5A2706F5D32A52880A79F37D1D780C44F03BFD1EC65BB0E28 PUSH1 0x0 SHL PUSH2 0x299C JUMP JUMPDEST PUSH1 0x0 PUSH1 0x2 PUSH1 0x0 CALLER PUSH20 0xFFFFFFFFFFFFFFFFFFFFFFFFFFFFFFFFFFFFFFFF AND PUSH20 0xFFFFFFFFFFFFFFFFFFFFFFFFFFFFFFFFFFFFFFFF AND DUP2 MSTORE PUSH1 0x20 ADD SWAP1 DUP2 MSTORE PUSH1 0x20 ADD PUSH1 0x0 KECCAK256 DUP2 SWAP1 SSTORE POP PUSH2 0x184F PUSH32 0x3C127507C0A412BA62C8DD686C95488C8800E05A37D48924D0A2173973C3BF97 PUSH1 0x0 SHL PUSH2 0x299C JUMP JUMPDEST PUSH2 0x187B PUSH32 0x93384416AA377A4EFF7952E7D7838207671993C574767742B1F2247FF1FAD54A PUSH1 0x0 SHL PUSH2 0x299C JUMP JUMPDEST PUSH1 0x0 CALLER PUSH20 0xFFFFFFFFFFFFFFFFFFFFFFFFFFFFFFFFFFFFFFFF AND DUP3 PUSH1 0x40 MLOAD PUSH2 0x18A1 SWAP1 PUSH2 0x2C65 JUMP JUMPDEST PUSH1 0x0 PUSH1 0x40 MLOAD DUP1 DUP4 SUB DUP2 DUP6 DUP8 GAS CALL SWAP3 POP POP POP RETURNDATASIZE DUP1 PUSH1 0x0 DUP2 EQ PUSH2 0x18DE JUMPI PUSH1 0x40 MLOAD SWAP2 POP PUSH1 0x1F NOT PUSH1 0x3F RETURNDATASIZE ADD AND DUP3 ADD PUSH1 0x40 MSTORE RETURNDATASIZE DUP3 MSTORE RETURNDATASIZE PUSH1 0x0 PUSH1 0x20 DUP5 ADD RETURNDATACOPY PUSH2 0x18E3 JUMP JUMPDEST PUSH1 0x60 SWAP2 POP JUMPDEST POP POP SWAP1 POP PUSH2 0x1913 PUSH32 0xDC5624EA5F5A1F58FB1E76E5B9B0AEB4D0535502221A67D72C3D0DA0BD58F76 PUSH1 0x0 SHL PUSH2 0x299C JUMP JUMPDEST PUSH2 0x193F PUSH32 0xEED4B8892D958867BB9411E17D07257F16B693049D86BD1A08AB717F23A86011 PUSH1 0x0 SHL PUSH2 0x299C JUMP JUMPDEST DUP1 PUSH2 0x19CE JUMPI PUSH2 0x1970 PUSH32 0x31695ABD5A4A464797DCE90E10EA343E433FF91B9C755D90D820BCC2B38106DC PUSH1 0x0 SHL PUSH2 0x299C JUMP JUMPDEST PUSH2 0x199C PUSH32 0x2FE8C6B4EA5D2F17E072739E41234F3C097F8FB6B12138B41FC73CDCD9889119 PUSH1 0x0 SHL PUSH2 0x299C JUMP JUMPDEST PUSH1 0x40 MLOAD PUSH32 0xA05884BA00000000000000000000000000000000000000000000000000000000 DUP2 MSTORE PUSH1 0x4 ADD PUSH1 0x40 MLOAD DUP1 SWAP2 SUB SWAP1 REVERT JUMPDEST PUSH2 0x19FA PUSH32 0x520F67CFFC4C3A477ED1D6ACAC5762DAEEAA3ABB8D4164F867F825F8A8FF0D78 PUSH1 0x0 SHL PUSH2 0x299C JUMP JUMPDEST POP POP JUMP JUMPDEST PUSH1 0x2 PUSH1 0x0 SLOAD EQ ISZERO PUSH2 0x1A44 JUMPI PUSH1 0x40 MLOAD PUSH32 0x8C379A000000000000000000000000000000000000000000000000000000000 DUP2 MSTORE PUSH1 0x4 ADD PUSH2 0x1A3B SWAP1 PUSH2 0x2CD7 JUMP JUMPDEST PUSH1 0x40 MLOAD DUP1 SWAP2 SUB SWAP1 REVERT JUMPDEST PUSH1 0x2 PUSH1 0x0 DUP2 SWAP1 SSTORE POP DUP2 DUP2 PUSH2 0x1A7A PUSH32 0xC519E775E29F2BEB3F2090197ECE93EB7C9773A573F4D9E107C44D37DD8C8ECA PUSH1 0x0 SHL PUSH2 0x299C JUMP JUMPDEST PUSH2 0x1AA6 PUSH32 0x81B669A7F03EC757318DB63F359D801165FF15513AA6B71D853F17A54715587D PUSH1 0x0 SHL PUSH2 0x299C JUMP JUMPDEST PUSH2 0x1AD2 PUSH32 0x475D5158DF0DAF715AD52A2283EFF48166F5739BADD55F044710EC0E31864645 PUSH1 0x0 SHL PUSH2 0x299C JUMP JUMPDEST PUSH1 0x0 PUSH1 0x1 PUSH1 0x0 DUP5 PUSH20 0xFFFFFFFFFFFFFFFFFFFFFFFFFFFFFFFFFFFFFFFF AND PUSH20 0xFFFFFFFFFFFFFFFFFFFFFFFFFFFFFFFFFFFFFFFF AND DUP2 MSTORE PUSH1 0x20 ADD SWAP1 DUP2 MSTORE PUSH1 0x20 ADD PUSH1 0x0 KECCAK256 PUSH1 0x0 DUP4 DUP2 MSTORE PUSH1 0x20 ADD SWAP1 DUP2 MSTORE PUSH1 0x20 ADD PUSH1 0x0 KECCAK256 PUSH1 0x40 MLOAD DUP1 PUSH1 0x40 ADD PUSH1 0x40 MSTORE SWAP1 DUP2 PUSH1 0x0 DUP3 ADD SLOAD DUP2 MSTORE PUSH1 0x20 ADD PUSH1 0x1 DUP3 ADD PUSH1 0x0 SWAP1 SLOAD SWAP1 PUSH2 0x100 EXP SWAP1 DIV PUSH20 0xFFFFFFFFFFFFFFFFFFFFFFFFFFFFFFFFFFFFFFFF AND PUSH20 0xFFFFFFFFFFFFFFFFFFFFFFFFFFFFFFFFFFFFFFFF AND PUSH20 0xFFFFFFFFFFFFFFFFFFFFFFFFFFFFFFFFFFFFFFFF AND DUP2 MSTORE POP POP SWAP1 POP PUSH2 0x1BBD PUSH32 0x53FEEF8BF2B8C8C2C463A709D31445C7B4E3906A573CD6FA6C01EAF949821A49 PUSH1 0x0 SHL PUSH2 0x299C JUMP JUMPDEST PUSH2 0x1BE9 PUSH32 0x51748E20686FD506078DF437EBBAE97382072EB5BD5B23C98F5D33B0345A3BAE PUSH1 0x0 SHL PUSH2 0x299C JUMP JUMPDEST PUSH1 0x0 DUP2 PUSH1 0x0 ADD MLOAD GT PUSH2 0x1C8C JUMPI PUSH2 0x1C21 PUSH32 0xE81C8BFFC7480F6D8A94CDC75F8EFD9FD0C5F08D69E93CB552719EFF880E011D PUSH1 0x0 SHL PUSH2 0x299C JUMP JUMPDEST PUSH2 0x1C4D PUSH32 0x6BFB503C7EF3020687602048A975EA28D71AF2543F656DE8598A1B7F99404C39 PUSH1 0x0 SHL PUSH2 0x299C JUMP JUMPDEST DUP3 DUP3 PUSH1 0x40 MLOAD PUSH32 0x6D350F2200000000000000000000000000000000000000000000000000000000 DUP2 MSTORE PUSH1 0x4 ADD PUSH2 0x1C83 SWAP3 SWAP2 SWAP1 PUSH2 0x2BC9 JUMP JUMPDEST PUSH1 0x40 MLOAD DUP1 SWAP2 SUB SWAP1 REVERT JUMPDEST PUSH2 0x1CB8 PUSH32 0x844F137EF12D6A9D4076759BFA156DB25DD7C7AA02D3922CD9A1D3FEF1CAB84B PUSH1 0x0 SHL PUSH2 0x299C JUMP JUMPDEST PUSH2 0x1CE4 PUSH32 0x83E3943205C8F39A1A5FE71C96AB4CE2B274348613DDE312784BF3839C6C99E4 PUSH1 0x0 SHL PUSH2 0x299C JUMP JUMPDEST PUSH2 0x1D10 PUSH32 0x6A4329FD8E9FDA6F3DAAB2BD96B51425D9E7842D8E1E87EEE808E1EF67840B71 PUSH1 0x0 SHL PUSH2 0x299C JUMP JUMPDEST PUSH2 0x1D3C PUSH32 0x8EB4CB02684AE9A9939B2B4E21FB0EEEEDB1ED3449BAD050D6CB3FDFC1BCC62 PUSH1 0x0 SHL PUSH2 0x299C JUMP JUMPDEST PUSH2 0x1D68 PUSH32 0xD98B55E3894A4FA25445F03274E5D1E8B82437D66BB33081C41D54F1A3B0FBF5 PUSH1 0x0 SHL PUSH2 0x299C JUMP JUMPDEST PUSH1 0x0 PUSH1 0x1 PUSH1 0x0 DUP8 PUSH20 0xFFFFFFFFFFFFFFFFFFFFFFFFFFFFFFFFFFFFFFFF AND PUSH20 0xFFFFFFFFFFFFFFFFFFFFFFFFFFFFFFFFFFFFFFFF AND DUP2 MSTORE PUSH1 0x20 ADD SWAP1 DUP2 MSTORE PUSH1 0x20 ADD PUSH1 0x0 KECCAK256 PUSH1 0x0 DUP7 DUP2 MSTORE PUSH1 0x20 ADD SWAP1 DUP2 MSTORE PUSH1 0x20 ADD PUSH1 0x0 KECCAK256 PUSH1 0x40 MLOAD DUP1 PUSH1 0x40 ADD PUSH1 0x40 MSTORE SWAP1 DUP2 PUSH1 0x0 DUP3 ADD SLOAD DUP2 MSTORE PUSH1 0x20 ADD PUSH1 0x1 DUP3 ADD PUSH1 0x0 SWAP1 SLOAD SWAP1 PUSH2 0x100 EXP SWAP1 DIV PUSH20 0xFFFFFFFFFFFFFFFFFFFFFFFFFFFFFFFFFFFFFFFF AND PUSH20 0xFFFFFFFFFFFFFFFFFFFFFFFFFFFFFFFFFFFFFFFF AND PUSH20 0xFFFFFFFFFFFFFFFFFFFFFFFFFFFFFFFFFFFFFFFF AND DUP2 MSTORE POP POP SWAP1 POP PUSH2 0x1E53 PUSH32 0x19A720E8C8800E289BEA842B015F400614F119C051FA766DA47327CE42A463D0 PUSH1 0x0 SHL PUSH2 0x299C JUMP JUMPDEST PUSH2 0x1E7F PUSH32 0x79A2839598A7EE4ACF65BE06C52CEA7B2F41EBB58C6FCDC0C0EEF651B49014B PUSH1 0x0 SHL PUSH2 0x299C JUMP JUMPDEST DUP1 PUSH1 0x0 ADD MLOAD CALLVALUE LT ISZERO PUSH2 0x1F28 JUMPI PUSH2 0x1EB7 PUSH32 0x78FD7FDEAA4F6A7A6A0C842072E0D1CDB644C3F8CF25EAF7EEA0C33DFD0F9FE7 PUSH1 0x0 SHL PUSH2 0x299C JUMP JUMPDEST PUSH2 0x1EE3 PUSH32 0x7A801783A6604D5AB7E43188292C0DD9B9114B6B8C662F7FF3B34CCD5B8BC5E8 PUSH1 0x0 SHL PUSH2 0x299C JUMP JUMPDEST DUP6 DUP6 DUP3 PUSH1 0x0 ADD MLOAD PUSH1 0x40 MLOAD PUSH32 0x817CE9F100000000000000000000000000000000000000000000000000000000 DUP2 MSTORE PUSH1 0x4 ADD PUSH2 0x1F1F SWAP4 SWAP3 SWAP2 SWAP1 PUSH2 0x2CF7 JUMP JUMPDEST PUSH1 0x40 MLOAD DUP1 SWAP2 SUB SWAP1 REVERT JUMPDEST PUSH2 0x1F54 PUSH32 0x8EBE25D3102A669756619FA9A233C900DF5DBF9DEE300B7B7EF35BB0AB9F163D PUSH1 0x0 SHL PUSH2 0x299C JUMP JUMPDEST PUSH2 0x1F80 PUSH32 0x8BDDDF5F8D21136DA36BFA64A8838C6F4CF938C66999BA9A5D00FA1A1D7400D5 PUSH1 0x0 SHL PUSH2 0x299C JUMP JUMPDEST PUSH2 0x1FAC PUSH32 0xB7069024455F076D75EA9210AA5142157CEEC49467BFCCA1D86832CE90340901 PUSH1 0x0 SHL PUSH2 0x299C JUMP JUMPDEST CALLVALUE PUSH1 0x2 PUSH1 0x0 DUP4 PUSH1 0x20 ADD MLOAD PUSH20 0xFFFFFFFFFFFFFFFFFFFFFFFFFFFFFFFFFFFFFFFF AND PUSH20 0xFFFFFFFFFFFFFFFFFFFFFFFFFFFFFFFFFFFFFFFF AND DUP2 MSTORE PUSH1 0x20 ADD SWAP1 DUP2 MSTORE PUSH1 0x20 ADD PUSH1 0x0 KECCAK256 SLOAD PUSH2 0x1FFB SWAP2 SWAP1 PUSH2 0x2D5D JUMP JUMPDEST PUSH1 0x2 PUSH1 0x0 DUP4 PUSH1 0x20 ADD MLOAD PUSH20 0xFFFFFFFFFFFFFFFFFFFFFFFFFFFFFFFFFFFFFFFF AND PUSH20 0xFFFFFFFFFFFFFFFFFFFFFFFFFFFFFFFFFFFFFFFF AND DUP2 MSTORE PUSH1 0x20 ADD SWAP1 DUP2 MSTORE PUSH1 0x20 ADD PUSH1 0x0 KECCAK256 DUP2 SWAP1 SSTORE POP PUSH2 0x206E PUSH32 0xF9269BB8967AD93D763BD4CF08B60824B59AD8F63C18C0BAA59BB9CFE153BDCF PUSH1 0x0 SHL PUSH2 0x299C JUMP JUMPDEST PUSH1 0x1 PUSH1 0x0 DUP8 PUSH20 0xFFFFFFFFFFFFFFFFFFFFFFFFFFFFFFFFFFFFFFFF AND PUSH20 0xFFFFFFFFFFFFFFFFFFFFFFFFFFFFFFFFFFFFFFFF AND DUP2 MSTORE PUSH1 0x20 ADD SWAP1 DUP2 MSTORE PUSH1 0x20 ADD PUSH1 0x0 KECCAK256 PUSH1 0x0 DUP7 DUP2 MSTORE PUSH1 0x20 ADD SWAP1 DUP2 MSTORE PUSH1 0x20 ADD PUSH1 0x0 KECCAK256 PUSH1 0x0 DUP1 DUP3 ADD PUSH1 0x0 SWAP1 SSTORE PUSH1 0x1 DUP3 ADD PUSH1 0x0 PUSH2 0x100 EXP DUP2 SLOAD SWAP1 PUSH20 0xFFFFFFFFFFFFFFFFFFFFFFFFFFFFFFFFFFFFFFFF MUL NOT AND SWAP1 SSTORE POP POP PUSH2 0x211C PUSH32 0xDC68873135BC968C36C7B6D60FE1B752A61597BA02DD5FD7BB8A2EB3255539B1 PUSH1 0x0 SHL PUSH2 0x299C JUMP JUMPDEST PUSH2 0x2148 PUSH32 0xB5EFF12F97931C6C1A5B93C724933A1D9ACA879F1DCEE448821FD9598B07B3FD PUSH1 0x0 SHL PUSH2 0x299C JUMP JUMPDEST DUP6 PUSH20 0xFFFFFFFFFFFFFFFFFFFFFFFFFFFFFFFFFFFFFFFF AND PUSH4 0x42842E0E DUP3 PUSH1 0x20 ADD MLOAD CALLER DUP9 PUSH1 0x40 MLOAD DUP5 PUSH4 0xFFFFFFFF AND PUSH1 0xE0 SHL DUP2 MSTORE PUSH1 0x4 ADD PUSH2 0x2189 SWAP4 SWAP3 SWAP2 SWAP1 PUSH2 0x2DB3 JUMP JUMPDEST PUSH1 0x0 PUSH1 0x40 MLOAD DUP1 DUP4 SUB DUP2 PUSH1 0x0 DUP8 DUP1 EXTCODESIZE ISZERO DUP1 ISZERO PUSH2 0x21A3 JUMPI PUSH1 0x0 DUP1 REVERT JUMPDEST POP GAS CALL ISZERO DUP1 ISZERO PUSH2 0x21B7 JUMPI RETURNDATASIZE PUSH1 0x0 DUP1 RETURNDATACOPY RETURNDATASIZE PUSH1 0x0 REVERT JUMPDEST POP POP POP POP PUSH2 0x21E7 PUSH32 0x2116613D8FC29438F68A6124BC639FEC35EC06F5E8BB7F2EC3C584D921665FB8 PUSH1 0x0 SHL PUSH2 0x299C JUMP JUMPDEST PUSH2 0x2213 PUSH32 0x852A95A88D2873583D0A4B9634EC605799D8A8EEA36055BD9324B879108B0367 PUSH1 0x0 SHL PUSH2 0x299C JUMP JUMPDEST DUP5 DUP7 PUSH20 0xFFFFFFFFFFFFFFFFFFFFFFFFFFFFFFFFFFFFFFFF AND CALLER PUSH20 0xFFFFFFFFFFFFFFFFFFFFFFFFFFFFFFFFFFFFFFFF AND PUSH32 0x263223B1DD81E51054A4E6F791D45A4A1DDB4AADCD93A2DFD892615C3FDAC187 DUP5 PUSH1 0x0 ADD MLOAD PUSH1 0x40 MLOAD PUSH2 0x2275 SWAP2 SWAP1 PUSH2 0x2AF7 JUMP JUMPDEST PUSH1 0x40 MLOAD DUP1 SWAP2 SUB SWAP1 LOG4 POP POP POP POP PUSH1 0x1 PUSH1 0x0 DUP2 SWAP1 SSTORE POP POP POP JUMP JUMPDEST DUP2 DUP2 CALLER PUSH2 0x22BC PUSH32 0x73A171DA1BD5A86809EE4FFA3881D677B720611291D45F698B9A59F7B591CF7C PUSH1 0x0 SHL PUSH2 0x299C JUMP JUMPDEST PUSH2 0x22E8 PUSH32 0x7633B3412EE93419566C55A22D85FCD4AF8F12622B5C67AD6D8C47B79478F64A PUSH1 0x0 SHL PUSH2 0x299C JUMP JUMPDEST PUSH2 0x2314 PUSH32 0x5641320B344A589F83234A9A7EA7081B3EDE91884CA8BFC3E9E869A9504B3CB1 PUSH1 0x0 SHL PUSH2 0x299C JUMP JUMPDEST PUSH1 0x0 DUP4 SWAP1 POP PUSH2 0x2345 PUSH32 0xEEE16DC6FD977215136E0B06DC04C1FF65683ACC0045FB93EB567E68FFA13C07 PUSH1 0x0 SHL PUSH2 0x299C JUMP JUMPDEST PUSH2 0x2371 PUSH32 0x4E7999B461672F302880D0CAE33D470B24A905E6FA9258B4043B558B95187152 PUSH1 0x0 SHL PUSH2 0x299C JUMP JUMPDEST PUSH1 0x0 DUP2 PUSH20 0xFFFFFFFFFFFFFFFFFFFFFFFFFFFFFFFFFFFFFFFF AND PUSH4 0x6352211E DUP6 PUSH1 0x40 MLOAD DUP3 PUSH4 0xFFFFFFFF AND PUSH1 0xE0 SHL DUP2 MSTORE PUSH1 0x4 ADD PUSH2 0x23AC SWAP2 SWAP1 PUSH2 0x2AF7 JUMP JUMPDEST PUSH1 0x20 PUSH1 0x40 MLOAD DUP1 DUP4 SUB DUP2 DUP7 DUP1 EXTCODESIZE ISZERO DUP1 ISZERO PUSH2 0x23C4 JUMPI PUSH1 0x0 DUP1 REVERT JUMPDEST POP GAS STATICCALL ISZERO DUP1 ISZERO PUSH2 0x23D8 JUMPI RETURNDATASIZE PUSH1 0x0 DUP1 RETURNDATACOPY RETURNDATASIZE PUSH1 0x0 REVERT JUMPDEST POP POP POP POP PUSH1 0x40 MLOAD RETURNDATASIZE PUSH1 0x1F NOT PUSH1 0x1F DUP3 ADD AND DUP3 ADD DUP1 PUSH1 0x40 MSTORE POP DUP2 ADD SWAP1 PUSH2 0x23FC SWAP2 SWAP1 PUSH2 0x2C07 JUMP JUMPDEST SWAP1 POP PUSH2 0x242A PUSH32 0xADBBFA77F3668D91979747833DA47FB58D7986413F6EA5EDE6BF2C1D288730A8 PUSH1 0x0 SHL PUSH2 0x299C JUMP JUMPDEST PUSH2 0x2456 PUSH32 0x4693269DDCBBF3917A96ED5BE5B9FD7B47D15EA346E3F0EE296EDF9A80900A29 PUSH1 0x0 SHL PUSH2 0x299C JUMP JUMPDEST DUP1 PUSH20 0xFFFFFFFFFFFFFFFFFFFFFFFFFFFFFFFFFFFFFFFF AND DUP4 PUSH20 0xFFFFFFFFFFFFFFFFFFFFFFFFFFFFFFFFFFFFFFFF AND EQ PUSH2 0x2513 JUMPI PUSH2 0x24B5 PUSH32 0x345D3BAB66CFF43E74F9139B8EC7FAFBA0AC68DDF8385D03583C6514217C6D85 PUSH1 0x0 SHL PUSH2 0x299C JUMP JUMPDEST PUSH2 0x24E1 PUSH32 0x53F9460763F2B3C3DF560CDAF5F646B0D0E79AB1D885CA6FF91D2D1EAC750036 PUSH1 0x0 SHL PUSH2 0x299C JUMP JUMPDEST PUSH1 0x40 MLOAD PUSH32 0x94953B6000000000000000000000000000000000000000000000000000000000 DUP2 MSTORE PUSH1 0x4 ADD PUSH1 0x40 MLOAD DUP1 SWAP2 SUB SWAP1 REVERT JUMPDEST PUSH2 0x253F PUSH32 0xA5CA2397FBB88C9C5D804792503658EB4BDF1282E159A6B914A217431462ACBB PUSH1 0x0 SHL PUSH2 0x299C JUMP JUMPDEST PUSH2 0x256B PUSH32 0x5F4BEE125D4B9CF0CDC2D72EBDA79319F5F1A70EE2A16C034B63F073E914128B PUSH1 0x0 SHL PUSH2 0x299C JUMP JUMPDEST DUP7 DUP7 PUSH2 0x2599 PUSH32 0xC519E775E29F2BEB3F2090197ECE93EB7C9773A573F4D9E107C44D37DD8C8ECA PUSH1 0x0 SHL PUSH2 0x299C JUMP JUMPDEST PUSH2 0x25C5 PUSH32 0x81B669A7F03EC757318DB63F359D801165FF15513AA6B71D853F17A54715587D PUSH1 0x0 SHL PUSH2 0x299C JUMP JUMPDEST PUSH2 0x25F1 PUSH32 0x475D5158DF0DAF715AD52A2283EFF48166F5739BADD55F044710EC0E31864645 PUSH1 0x0 SHL PUSH2 0x299C JUMP JUMPDEST PUSH1 0x0 PUSH1 0x1 PUSH1 0x0 DUP5 PUSH20 0xFFFFFFFFFFFFFFFFFFFFFFFFFFFFFFFFFFFFFFFF AND PUSH20 0xFFFFFFFFFFFFFFFFFFFFFFFFFFFFFFFFFFFFFFFF AND DUP2 MSTORE PUSH1 0x20 ADD SWAP1 DUP2 MSTORE PUSH1 0x20 ADD PUSH1 0x0 KECCAK256 PUSH1 0x0 DUP4 DUP2 MSTORE PUSH1 0x20 ADD SWAP1 DUP2 MSTORE PUSH1 0x20 ADD PUSH1 0x0 KECCAK256 PUSH1 0x40 MLOAD DUP1 PUSH1 0x40 ADD PUSH1 0x40 MSTORE SWAP1 DUP2 PUSH1 0x0 DUP3 ADD SLOAD DUP2 MSTORE PUSH1 0x20 ADD PUSH1 0x1 DUP3 ADD PUSH1 0x0 SWAP1 SLOAD SWAP1 PUSH2 0x100 EXP SWAP1 DIV PUSH20 0xFFFFFFFFFFFFFFFFFFFFFFFFFFFFFFFFFFFFFFFF AND PUSH20 0xFFFFFFFFFFFFFFFFFFFFFFFFFFFFFFFFFFFFFFFF AND PUSH20 0xFFFFFFFFFFFFFFFFFFFFFFFFFFFFFFFFFFFFFFFF AND DUP2 MSTORE POP POP SWAP1 POP PUSH2 0x26DC PUSH32 0x53FEEF8BF2B8C8C2C463A709D31445C7B4E3906A573CD6FA6C01EAF949821A49 PUSH1 0x0 SHL PUSH2 0x299C JUMP JUMPDEST PUSH2 0x2708 PUSH32 0x51748E20686FD506078DF437EBBAE97382072EB5BD5B23C98F5D33B0345A3BAE PUSH1 0x0 SHL PUSH2 0x299C JUMP JUMPDEST PUSH1 0x0 DUP2 PUSH1 0x0 ADD MLOAD GT PUSH2 0x27AB JUMPI PUSH2 0x2740 PUSH32 0xE81C8BFFC7480F6D8A94CDC75F8EFD9FD0C5F08D69E93CB552719EFF880E011D PUSH1 0x0 SHL PUSH2 0x299C JUMP JUMPDEST PUSH2 0x276C PUSH32 0x6BFB503C7EF3020687602048A975EA28D71AF2543F656DE8598A1B7F99404C39 PUSH1 0x0 SHL PUSH2 0x299C JUMP JUMPDEST DUP3 DUP3 PUSH1 0x40 MLOAD PUSH32 0x6D350F2200000000000000000000000000000000000000000000000000000000 DUP2 MSTORE PUSH1 0x4 ADD PUSH2 0x27A2 SWAP3 SWAP2 SWAP1 PUSH2 0x2BC9 JUMP JUMPDEST PUSH1 0x40 MLOAD DUP1 SWAP2 SUB SWAP1 REVERT JUMPDEST PUSH2 0x27D7 PUSH32 0x844F137EF12D6A9D4076759BFA156DB25DD7C7AA02D3922CD9A1D3FEF1CAB84B PUSH1 0x0 SHL PUSH2 0x299C JUMP JUMPDEST PUSH2 0x2803 PUSH32 0x83E3943205C8F39A1A5FE71C96AB4CE2B274348613DDE312784BF3839C6C99E4 PUSH1 0x0 SHL PUSH2 0x299C JUMP JUMPDEST PUSH2 0x282F PUSH32 0xAFF041232E5B0F2BB4E77CEAC07DFE3648D69868148483A831F1E1A39CD46C26 PUSH1 0x0 SHL PUSH2 0x299C JUMP JUMPDEST PUSH2 0x285B PUSH32 0xF55419B618D9B9E55CC72986A269CE2441BE1F5DF301F86E35ECE74DFF73107E PUSH1 0x0 SHL PUSH2 0x299C JUMP JUMPDEST PUSH1 0x1 PUSH1 0x0 DUP12 PUSH20 0xFFFFFFFFFFFFFFFFFFFFFFFFFFFFFFFFFFFFFFFF AND PUSH20 0xFFFFFFFFFFFFFFFFFFFFFFFFFFFFFFFFFFFFFFFF AND DUP2 MSTORE PUSH1 0x20 ADD SWAP1 DUP2 MSTORE PUSH1 0x20 ADD PUSH1 0x0 KECCAK256 PUSH1 0x0 DUP11 DUP2 MSTORE PUSH1 0x20 ADD SWAP1 DUP2 MSTORE PUSH1 0x20 ADD PUSH1 0x0 KECCAK256 PUSH1 0x0 DUP1 DUP3 ADD PUSH1 0x0 SWAP1 SSTORE PUSH1 0x1 DUP3 ADD PUSH1 0x0 PUSH2 0x100 EXP DUP2 SLOAD SWAP1 PUSH20 0xFFFFFFFFFFFFFFFFFFFFFFFFFFFFFFFFFFFFFFFF MUL NOT AND SWAP1 SSTORE POP POP PUSH2 0x2909 PUSH32 0xDF646358D902F52936D44575268F2A4FF1942670BCB2E58449E2BA6FA0C66932 PUSH1 0x0 SHL PUSH2 0x299C JUMP JUMPDEST PUSH2 0x2935 PUSH32 0x273487160E665D5DEEDCCF85FBFC72323C4F11C916E87B84CC6057652E5BF89A PUSH1 0x0 SHL PUSH2 0x299C JUMP JUMPDEST DUP9 DUP11 PUSH20 0xFFFFFFFFFFFFFFFFFFFFFFFFFFFFFFFFFFFFFFFF AND CALLER PUSH20 0xFFFFFFFFFFFFFFFFFFFFFFFFFFFFFFFFFFFFFFFF AND PUSH32 0xAFBB223CE72219B6597689A4504D478BC445E0E829CD6F7BF117E49624980FDC PUSH1 0x40 MLOAD PUSH1 0x40 MLOAD DUP1 SWAP2 SUB SWAP1 LOG4 POP POP POP POP POP POP POP POP POP POP JUMP JUMPDEST POP JUMP JUMPDEST PUSH1 0x40 MLOAD DUP1 PUSH1 0x40 ADD PUSH1 0x40 MSTORE DUP1 PUSH1 0x0 DUP2 MSTORE PUSH1 0x20 ADD PUSH1 0x0 PUSH20 0xFFFFFFFFFFFFFFFFFFFFFFFFFFFFFFFFFFFFFFFF AND DUP2 MSTORE POP SWAP1 JUMP JUMPDEST PUSH1 0x0 DUP1 REVERT JUMPDEST PUSH1 0x0 PUSH20 0xFFFFFFFFFFFFFFFFFFFFFFFFFFFFFFFFFFFFFFFF DUP3 AND SWAP1 POP SWAP2 SWAP1 POP JUMP JUMPDEST PUSH1 0x0 PUSH2 0x29FF DUP3 PUSH2 0x29D4 JUMP JUMPDEST SWAP1 POP SWAP2 SWAP1 POP JUMP JUMPDEST PUSH2 0x2A0F DUP2 PUSH2 0x29F4 JUMP JUMPDEST DUP2 EQ PUSH2 0x2A1A JUMPI PUSH1 0x0 DUP1 REVERT JUMPDEST POP JUMP JUMPDEST PUSH1 0x0 DUP2 CALLDATALOAD SWAP1 POP PUSH2 0x2A2C DUP2 PUSH2 0x2A06 JUMP JUMPDEST SWAP3 SWAP2 POP POP JUMP JUMPDEST PUSH1 0x0 DUP2 SWAP1 POP SWAP2 SWAP1 POP JUMP JUMPDEST PUSH2 0x2A45 DUP2 PUSH2 0x2A32 JUMP JUMPDEST DUP2 EQ PUSH2 0x2A50 JUMPI PUSH1 0x0 DUP1 REVERT JUMPDEST POP JUMP JUMPDEST PUSH1 0x0 DUP2 CALLDATALOAD SWAP1 POP PUSH2 0x2A62 DUP2 PUSH2 0x2A3C JUMP JUMPDEST SWAP3 SWAP2 POP POP JUMP JUMPDEST PUSH1 0x0 DUP1 PUSH1 0x0 PUSH1 0x60 DUP5 DUP7 SUB SLT ISZERO PUSH2 0x2A81 JUMPI PUSH2 0x2A80 PUSH2 0x29CF JUMP JUMPDEST JUMPDEST PUSH1 0x0 PUSH2 0x2A8F DUP7 DUP3 DUP8 ADD PUSH2 0x2A1D JUMP JUMPDEST SWAP4 POP POP PUSH1 0x20 PUSH2 0x2AA0 DUP7 DUP3 DUP8 ADD PUSH2 0x2A53 JUMP JUMPDEST SWAP3 POP POP PUSH1 0x40 PUSH2 0x2AB1 DUP7 DUP3 DUP8 ADD PUSH2 0x2A53 JUMP JUMPDEST SWAP2 POP POP SWAP3 POP SWAP3 POP SWAP3 JUMP JUMPDEST PUSH1 0x0 PUSH1 0x20 DUP3 DUP5 SUB SLT ISZERO PUSH2 0x2AD1 JUMPI PUSH2 0x2AD0 PUSH2 0x29CF JUMP JUMPDEST JUMPDEST PUSH1 0x0 PUSH2 0x2ADF DUP5 DUP3 DUP6 ADD PUSH2 0x2A1D JUMP JUMPDEST SWAP2 POP POP SWAP3 SWAP2 POP POP JUMP JUMPDEST PUSH2 0x2AF1 DUP2 PUSH2 0x2A32 JUMP JUMPDEST DUP3 MSTORE POP POP JUMP JUMPDEST PUSH1 0x0 PUSH1 0x20 DUP3 ADD SWAP1 POP PUSH2 0x2B0C PUSH1 0x0 DUP4 ADD DUP5 PUSH2 0x2AE8 JUMP JUMPDEST SWAP3 SWAP2 POP POP JUMP JUMPDEST PUSH1 0x0 DUP1 PUSH1 0x40 DUP4 DUP6 SUB SLT ISZERO PUSH2 0x2B29 JUMPI PUSH2 0x2B28 PUSH2 0x29CF JUMP JUMPDEST JUMPDEST PUSH1 0x0 PUSH2 0x2B37 DUP6 DUP3 DUP7 ADD PUSH2 0x2A1D JUMP JUMPDEST SWAP3 POP POP PUSH1 0x20 PUSH2 0x2B48 DUP6 DUP3 DUP7 ADD PUSH2 0x2A53 JUMP JUMPDEST SWAP2 POP POP SWAP3 POP SWAP3 SWAP1 POP JUMP JUMPDEST PUSH2 0x2B5B DUP2 PUSH2 0x2A32 JUMP JUMPDEST DUP3 MSTORE POP POP JUMP JUMPDEST PUSH2 0x2B6A DUP2 PUSH2 0x29F4 JUMP JUMPDEST DUP3 MSTORE POP POP JUMP JUMPDEST PUSH1 0x40 DUP3 ADD PUSH1 0x0 DUP3 ADD MLOAD PUSH2 0x2B86 PUSH1 0x0 DUP6 ADD DUP3 PUSH2 0x2B52 JUMP JUMPDEST POP PUSH1 0x20 DUP3 ADD MLOAD PUSH2 0x2B99 PUSH1 0x20 DUP6 ADD DUP3 PUSH2 0x2B61 JUMP JUMPDEST POP POP POP POP JUMP JUMPDEST PUSH1 0x0 PUSH1 0x40 DUP3 ADD SWAP1 POP PUSH2 0x2BB4 PUSH1 0x0 DUP4 ADD DUP5 PUSH2 0x2B70 JUMP JUMPDEST SWAP3 SWAP2 POP POP JUMP JUMPDEST PUSH2 0x2BC3 DUP2 PUSH2 0x29F4 JUMP JUMPDEST DUP3 MSTORE POP POP JUMP JUMPDEST PUSH1 0x0 PUSH1 0x40 DUP3 ADD SWAP1 POP PUSH2 0x2BDE PUSH1 0x0 DUP4 ADD DUP6 PUSH2 0x2BBA JUMP JUMPDEST PUSH2 0x2BEB PUSH1 0x20 DUP4 ADD DUP5 PUSH2 0x2AE8 JUMP JUMPDEST SWAP4 SWAP3 POP POP POP JUMP JUMPDEST PUSH1 0x0 DUP2 MLOAD SWAP1 POP PUSH2 0x2C01 DUP2 PUSH2 0x2A06 JUMP JUMPDEST SWAP3 SWAP2 POP POP JUMP JUMPDEST PUSH1 0x0 PUSH1 0x20 DUP3 DUP5 SUB SLT ISZERO PUSH2 0x2C1D JUMPI PUSH2 0x2C1C PUSH2 0x29CF JUMP JUMPDEST JUMPDEST PUSH1 0x0 PUSH2 0x2C2B DUP5 DUP3 DUP6 ADD PUSH2 0x2BF2 JUMP JUMPDEST SWAP2 POP POP SWAP3 SWAP2 POP POP JUMP JUMPDEST PUSH1 0x0 DUP2 SWAP1 POP SWAP3 SWAP2 POP POP JUMP JUMPDEST POP JUMP JUMPDEST PUSH1 0x0 PUSH2 0x2C4F PUSH1 0x0 DUP4 PUSH2 0x2C34 JUMP JUMPDEST SWAP2 POP PUSH2 0x2C5A DUP3 PUSH2 0x2C3F JUMP JUMPDEST PUSH1 0x0 DUP3 ADD SWAP1 POP SWAP2 SWAP1 POP JUMP JUMPDEST PUSH1 0x0 PUSH2 0x2C70 DUP3 PUSH2 0x2C42 JUMP JUMPDEST SWAP2 POP DUP2 SWAP1 POP SWAP2 SWAP1 POP JUMP JUMPDEST PUSH1 0x0 DUP3 DUP3 MSTORE PUSH1 0x20 DUP3 ADD SWAP1 POP SWAP3 SWAP2 POP POP JUMP JUMPDEST PUSH32 0x5265656E7472616E637947756172643A207265656E7472616E742063616C6C00 PUSH1 0x0 DUP3 ADD MSTORE POP JUMP JUMPDEST PUSH1 0x0 PUSH2 0x2CC1 PUSH1 0x1F DUP4 PUSH2 0x2C7A JUMP JUMPDEST SWAP2 POP PUSH2 0x2CCC DUP3 PUSH2 0x2C8B JUMP JUMPDEST PUSH1 0x20 DUP3 ADD SWAP1 POP SWAP2 SWAP1 POP JUMP JUMPDEST PUSH1 0x0 PUSH1 0x20 DUP3 ADD SWAP1 POP DUP2 DUP2 SUB PUSH1 0x0 DUP4 ADD MSTORE PUSH2 0x2CF0 DUP2 PUSH2 0x2CB4 JUMP JUMPDEST SWAP1 POP SWAP2 SWAP1 POP JUMP JUMPDEST PUSH1 0x0 PUSH1 0x60 DUP3 ADD SWAP1 POP PUSH2 0x2D0C PUSH1 0x0 DUP4 ADD DUP7 PUSH2 0x2BBA JUMP JUMPDEST PUSH2 0x2D19 PUSH1 0x20 DUP4 ADD DUP6 PUSH2 0x2AE8 JUMP JUMPDEST PUSH2 0x2D26 PUSH1 0x40 DUP4 ADD DUP5 PUSH2 0x2AE8 JUMP JUMPDEST SWAP5 SWAP4 POP POP POP POP JUMP JUMPDEST PUSH32 0x4E487B7100000000000000000000000000000000000000000000000000000000 PUSH1 0x0 MSTORE PUSH1 0x11 PUSH1 0x4 MSTORE PUSH1 0x24 PUSH1 0x0 REVERT JUMPDEST PUSH1 0x0 PUSH2 0x2D68 DUP3 PUSH2 0x2A32 JUMP JUMPDEST SWAP2 POP PUSH2 0x2D73 DUP4 PUSH2 0x2A32 JUMP JUMPDEST SWAP3 POP DUP3 PUSH32 0xFFFFFFFFFFFFFFFFFFFFFFFFFFFFFFFFFFFFFFFFFFFFFFFFFFFFFFFFFFFFFFFF SUB DUP3 GT ISZERO PUSH2 0x2DA8 JUMPI PUSH2 0x2DA7 PUSH2 0x2D2E JUMP JUMPDEST JUMPDEST DUP3 DUP3 ADD SWAP1 POP SWAP3 SWAP2 POP POP JUMP JUMPDEST PUSH1 0x0 PUSH1 0x60 DUP3 ADD SWAP1 POP PUSH2 0x2DC8 PUSH1 0x0 DUP4 ADD DUP7 PUSH2 0x2BBA JUMP JUMPDEST PUSH2 0x2DD5 PUSH1 0x20 DUP4 ADD DUP6 PUSH2 0x2BBA JUMP JUMPDEST PUSH2 0x2DE2 PUSH1 0x40 DUP4 ADD DUP5 PUSH2 0x2AE8 JUMP JUMPDEST SWAP5 SWAP4 POP POP POP POP JUMP INVALID LOG2 PUSH5 0x6970667358 0x22 SLT KECCAK256 PUSH16 0x8A8A822DAAD683956B047D9F1D8E19DC CALLCODE LOG3 0xC1 0xBC BYTE COINBASE DIFFICULTY PUSH1 0x50 0x27 NUMBER 0x4E BLOCKHASH PUSH28 0x2E64736F6C6343000808003300000000000000000000000000000000 "
        },
        "gasEstimates": {
          "creation": {
            "codeDepositCost": "2361600",
            "executionCost": "infinite",
            "totalCost": "infinite"
          },
          "external": {
            "buyItem(address,uint256)": "infinite",
            "cancelListing(address,uint256)": "infinite",
            "getListing(address,uint256)": "infinite",
            "getProceeds(address)": "infinite",
            "listItem(address,uint256,uint256)": "infinite",
            "updateListings(address,uint256,uint256)": "infinite",
            "withdrawProceeds()": "infinite"
          },
          "internal": {
            "c_0xe58585a1(bytes32)": "11"
          }
        },
        "methodIdentifiers": {
          "buyItem(address,uint256)": "9f37092a",
          "cancelListing(address,uint256)": "b2ddee06",
          "getListing(address,uint256)": "88700d1c",
          "getProceeds(address)": "30cfeda9",
          "listItem(address,uint256,uint256)": "89bfd38f",
          "updateListings(address,uint256,uint256)": "10447fd5",
          "withdrawProceeds()": "9038e693"
        }
      },
      "storageLayout": {
        "storage": [
          {
            "astId": 10,
            "contract": "contracts/NftMarketplace.sol:NftMarketplace",
            "label": "_status",
            "offset": 0,
            "slot": "0",
            "type": "t_uint256"
          },
          {
            "astId": 1734,
            "contract": "contracts/NftMarketplace.sol:NftMarketplace",
            "label": "s_listings",
            "offset": 0,
            "slot": "1",
            "type": "t_mapping(t_address,t_mapping(t_uint256,t_struct(Listing)1699_storage))"
          },
          {
            "astId": 1738,
            "contract": "contracts/NftMarketplace.sol:NftMarketplace",
            "label": "s_proceeds",
            "offset": 0,
            "slot": "2",
            "type": "t_mapping(t_address,t_uint256)"
          }
        ],
        "types": {
          "t_address": {
            "encoding": "inplace",
            "label": "address",
            "numberOfBytes": "20"
          },
          "t_mapping(t_address,t_mapping(t_uint256,t_struct(Listing)1699_storage))": {
            "encoding": "mapping",
            "key": "t_address",
            "label": "mapping(address => mapping(uint256 => struct NftMarketplace.Listing))",
            "numberOfBytes": "32",
            "value": "t_mapping(t_uint256,t_struct(Listing)1699_storage)"
          },
          "t_mapping(t_address,t_uint256)": {
            "encoding": "mapping",
            "key": "t_address",
            "label": "mapping(address => uint256)",
            "numberOfBytes": "32",
            "value": "t_uint256"
          },
          "t_mapping(t_uint256,t_struct(Listing)1699_storage)": {
            "encoding": "mapping",
            "key": "t_uint256",
            "label": "mapping(uint256 => struct NftMarketplace.Listing)",
            "numberOfBytes": "32",
            "value": "t_struct(Listing)1699_storage"
          },
          "t_struct(Listing)1699_storage": {
            "encoding": "inplace",
            "label": "struct NftMarketplace.Listing",
            "members": [
              {
                "astId": 1696,
                "contract": "contracts/NftMarketplace.sol:NftMarketplace",
                "label": "price",
                "offset": 0,
                "slot": "0",
                "type": "t_uint256"
              },
              {
                "astId": 1698,
                "contract": "contracts/NftMarketplace.sol:NftMarketplace",
                "label": "seller",
                "offset": 0,
                "slot": "1",
                "type": "t_address"
              }
            ],
            "numberOfBytes": "64"
          },
          "t_uint256": {
            "encoding": "inplace",
            "label": "uint256",
            "numberOfBytes": "32"
          }
        }
      },
      "userdoc": {
        "kind": "user",
        "methods": {},
        "version": 1
      }
    }
  }
}