{
  "_format": "hh-sol-artifact-1",
  "contractName": "BasicNft",
  "sourceName": "contracts/test/basicNft.sol",
  "abi": [
    {
      "inputs": [],
      "stateMutability": "nonpayable",
      "type": "constructor"
    },
    {
      "anonymous": false,
      "inputs": [
        {
          "indexed": true,
          "internalType": "address",
          "name": "owner",
          "type": "address"
        },
        {
          "indexed": true,
          "internalType": "address",
          "name": "approved",
          "type": "address"
        },
        {
          "indexed": true,
          "internalType": "uint256",
          "name": "tokenId",
          "type": "uint256"
        }
      ],
      "name": "Approval",
      "type": "event"
    },
    {
      "anonymous": false,
      "inputs": [
        {
          "indexed": true,
          "internalType": "address",
          "name": "owner",
          "type": "address"
        },
        {
          "indexed": true,
          "internalType": "address",
          "name": "operator",
          "type": "address"
        },
        {
          "indexed": false,
          "internalType": "bool",
          "name": "approved",
          "type": "bool"
        }
      ],
      "name": "ApprovalForAll",
      "type": "event"
    },
    {
      "anonymous": false,
      "inputs": [
        {
          "indexed": true,
          "internalType": "uint256",
          "name": "tokenId",
          "type": "uint256"
        }
      ],
      "name": "DogMinted",
      "type": "event"
    },
    {
      "anonymous": false,
      "inputs": [
        {
          "indexed": true,
          "internalType": "address",
          "name": "from",
          "type": "address"
        },
        {
          "indexed": true,
          "internalType": "address",
          "name": "to",
          "type": "address"
        },
        {
          "indexed": true,
          "internalType": "uint256",
          "name": "tokenId",
          "type": "uint256"
        }
      ],
      "name": "Transfer",
      "type": "event"
    },
    {
      "inputs": [],
      "name": "TOKEN_URI",
      "outputs": [
        {
          "internalType": "string",
          "name": "",
          "type": "string"
        }
      ],
      "stateMutability": "view",
      "type": "function"
    },
    {
      "inputs": [
        {
          "internalType": "address",
          "name": "to",
          "type": "address"
        },
        {
          "internalType": "uint256",
          "name": "tokenId",
          "type": "uint256"
        }
      ],
      "name": "approve",
      "outputs": [],
      "stateMutability": "nonpayable",
      "type": "function"
    },
    {
      "inputs": [
        {
          "internalType": "address",
          "name": "owner",
          "type": "address"
        }
      ],
      "name": "balanceOf",
      "outputs": [
        {
          "internalType": "uint256",
          "name": "",
          "type": "uint256"
        }
      ],
      "stateMutability": "view",
      "type": "function"
    },
    {
      "inputs": [
        {
          "internalType": "uint256",
          "name": "tokenId",
          "type": "uint256"
        }
      ],
      "name": "getApproved",
      "outputs": [
        {
          "internalType": "address",
          "name": "",
          "type": "address"
        }
      ],
      "stateMutability": "view",
      "type": "function"
    },
    {
      "inputs": [],
      "name": "getTokenCounter",
      "outputs": [
        {
          "internalType": "uint256",
          "name": "",
          "type": "uint256"
        }
      ],
      "stateMutability": "view",
      "type": "function"
    },
    {
      "inputs": [
        {
          "internalType": "address",
          "name": "owner",
          "type": "address"
        },
        {
          "internalType": "address",
          "name": "operator",
          "type": "address"
        }
      ],
      "name": "isApprovedForAll",
      "outputs": [
        {
          "internalType": "bool",
          "name": "",
          "type": "bool"
        }
      ],
      "stateMutability": "view",
      "type": "function"
    },
    {
      "inputs": [],
      "name": "mintNft",
      "outputs": [],
      "stateMutability": "nonpayable",
      "type": "function"
    },
    {
      "inputs": [],
      "name": "name",
      "outputs": [
        {
          "internalType": "string",
          "name": "",
          "type": "string"
        }
      ],
      "stateMutability": "view",
      "type": "function"
    },
    {
      "inputs": [
        {
          "internalType": "uint256",
          "name": "tokenId",
          "type": "uint256"
        }
      ],
      "name": "ownerOf",
      "outputs": [
        {
          "internalType": "address",
          "name": "",
          "type": "address"
        }
      ],
      "stateMutability": "view",
      "type": "function"
    },
    {
      "inputs": [
        {
          "internalType": "address",
          "name": "from",
          "type": "address"
        },
        {
          "internalType": "address",
          "name": "to",
          "type": "address"
        },
        {
          "internalType": "uint256",
          "name": "tokenId",
          "type": "uint256"
        }
      ],
      "name": "safeTransferFrom",
      "outputs": [],
      "stateMutability": "nonpayable",
      "type": "function"
    },
    {
      "inputs": [
        {
          "internalType": "address",
          "name": "from",
          "type": "address"
        },
        {
          "internalType": "address",
          "name": "to",
          "type": "address"
        },
        {
          "internalType": "uint256",
          "name": "tokenId",
          "type": "uint256"
        },
        {
          "internalType": "bytes",
          "name": "data",
          "type": "bytes"
        }
      ],
      "name": "safeTransferFrom",
      "outputs": [],
      "stateMutability": "nonpayable",
      "type": "function"
    },
    {
      "inputs": [
        {
          "internalType": "address",
          "name": "operator",
          "type": "address"
        },
        {
          "internalType": "bool",
          "name": "approved",
          "type": "bool"
        }
      ],
      "name": "setApprovalForAll",
      "outputs": [],
      "stateMutability": "nonpayable",
      "type": "function"
    },
    {
      "inputs": [
        {
          "internalType": "bytes4",
          "name": "interfaceId",
          "type": "bytes4"
        }
      ],
      "name": "supportsInterface",
      "outputs": [
        {
          "internalType": "bool",
          "name": "",
          "type": "bool"
        }
      ],
      "stateMutability": "view",
      "type": "function"
    },
    {
      "inputs": [],
      "name": "symbol",
      "outputs": [
        {
          "internalType": "string",
          "name": "",
          "type": "string"
        }
      ],
      "stateMutability": "view",
      "type": "function"
    },
    {
      "inputs": [
        {
          "internalType": "uint256",
          "name": "tokenId",
          "type": "uint256"
        }
      ],
      "name": "tokenURI",
      "outputs": [
        {
          "internalType": "string",
          "name": "",
          "type": "string"
        }
      ],
      "stateMutability": "view",
      "type": "function"
    },
    {
      "inputs": [
        {
          "internalType": "address",
          "name": "from",
          "type": "address"
        },
        {
          "internalType": "address",
          "name": "to",
          "type": "address"
        },
        {
          "internalType": "uint256",
          "name": "tokenId",
          "type": "uint256"
        }
      ],
      "name": "transferFrom",
      "outputs": [],
      "stateMutability": "nonpayable",
      "type": "function"
    }
  ],
  "bytecode": "0x60806040523480156200001157600080fd5b506040518060400160405280600581526020017f446f6769650000000000000000000000000000000000000000000000000000008152506040518060400160405280600381526020017f444f4700000000000000000000000000000000000000000000000000000000008152508160009080519060200190620000969291906200015f565b508060019080519060200190620000af9291906200015f565b505050620000e67f7296754eb0581678f3017ccbbd7abc710bc21fb2dc984401a3a551b099f6349060001b6200015c60201b60201c565b6200011a7f2d0154ebea6985377514eca7d168049bf2daaa160e7db4dcb9c9dd6db41c83cc60001b6200015c60201b60201c565b6200014e7fd6a9ee03b2f2094bfd7bf1d063af897865434b87ec8937254cf160d3f8fc995060001b6200015c60201b60201c565b600060068190555062000274565b50565b8280546200016d906200023e565b90600052602060002090601f016020900481019282620001915760008555620001dd565b82601f10620001ac57805160ff1916838001178555620001dd565b82800160010185558215620001dd579182015b82811115620001dc578251825591602001919060010190620001bf565b5b509050620001ec9190620001f0565b5090565b5b808211156200020b576000816000905550600101620001f1565b5090565b7f4e487b7100000000000000000000000000000000000000000000000000000000600052602260045260246000fd5b600060028204905060018216806200025757607f821691505b602082108114156200026e576200026d6200020f565b5b50919050565b6126a980620002846000396000f3fe608060405234801561001057600080fd5b50600436106101005760003560e01c806370a0823111610097578063b88d4fde11610066578063b88d4fde146102ad578063c2229fea146102c9578063c87b56dd146102d3578063e985e9c51461030357610100565b806370a082311461022557806378ce90351461025557806395d89b4114610273578063a22cb4651461029157610100565b806323b872dd116100d357806323b872dd1461019f57806342842e0e146101bb5780636352211e146101d75780636e02007d1461020757610100565b806301ffc9a71461010557806306fdde0314610135578063081812fc14610153578063095ea7b314610183575b600080fd5b61011f600480360381019061011a9190611888565b610333565b60405161012c91906118d0565b60405180910390f35b61013d610415565b60405161014a9190611984565b60405180910390f35b61016d600480360381019061016891906119dc565b6104a7565b60405161017a9190611a4a565b60405180910390f35b61019d60048036038101906101989190611a91565b6104ed565b005b6101b960048036038101906101b49190611ad1565b610605565b005b6101d560048036038101906101d09190611ad1565b610665565b005b6101f160048036038101906101ec91906119dc565b610685565b6040516101fe9190611a4a565b60405180910390f35b61020f610737565b60405161021c9190611b33565b60405180910390f35b61023f600480360381019061023a9190611b4e565b6107c5565b60405161024c9190611b33565b60405180910390f35b61025d61087d565b60405161026a9190611984565b60405180910390f35b61027b610899565b6040516102889190611984565b60405180910390f35b6102ab60048036038101906102a69190611ba7565b61092b565b005b6102c760048036038101906102c29190611d1c565b610941565b005b6102d16109a3565b005b6102ed60048036038101906102e891906119dc565b610b29565b6040516102fa9190611984565b60405180910390f35b61031d60048036038101906103189190611d9f565b610cc7565b60405161032a91906118d0565b60405180910390f35b60007f80ac58cd000000000000000000000000000000000000000000000000000000007bffffffffffffffffffffffffffffffffffffffffffffffffffffffff1916827bffffffffffffffffffffffffffffffffffffffffffffffffffffffff191614806103fe57507f5b5e139f000000000000000000000000000000000000000000000000000000007bffffffffffffffffffffffffffffffffffffffffffffffffffffffff1916827bffffffffffffffffffffffffffffffffffffffffffffffffffffffff1916145b8061040e575061040d82610d5b565b5b9050919050565b60606000805461042490611e0e565b80601f016020809104026020016040519081016040528092919081815260200182805461045090611e0e565b801561049d5780601f106104725761010080835404028352916020019161049d565b820191906000526020600020905b81548152906001019060200180831161048057829003601f168201915b5050505050905090565b60006104b282610dc5565b6004600083815260200190815260200160002060009054906101000a900473ffffffffffffffffffffffffffffffffffffffff169050919050565b60006104f882610685565b90508073ffffffffffffffffffffffffffffffffffffffff168373ffffffffffffffffffffffffffffffffffffffff161415610569576040517f08c379a000000000000000000000000000000000000000000000000000000000815260040161056090611eb2565b60405180910390fd5b8073ffffffffffffffffffffffffffffffffffffffff16610588610e10565b73ffffffffffffffffffffffffffffffffffffffff1614806105b757506105b6816105b1610e10565b610cc7565b5b6105f6576040517f08c379a00000000000000000000000000000000000000000000000000000000081526004016105ed90611f44565b60405180910390fd5b6106008383610e18565b505050565b610616610610610e10565b82610ed1565b610655576040517f08c379a000000000000000000000000000000000000000000000000000000000815260040161064c90611fd6565b60405180910390fd5b610660838383610f66565b505050565b61068083838360405180602001604052806000815250610941565b505050565b6000806002600084815260200190815260200160002060009054906101000a900473ffffffffffffffffffffffffffffffffffffffff169050600073ffffffffffffffffffffffffffffffffffffffff168173ffffffffffffffffffffffffffffffffffffffff16141561072e576040517f08c379a000000000000000000000000000000000000000000000000000000000815260040161072590612042565b60405180910390fd5b80915050919050565b60006107657fc9524cff6d3dcbdd5f2374bb8b85a83679c00dd80198e3400b254ae13d41abfe60001b6111cd565b6107917f63f158bc0753f3872c11725ad094f523c7c090819b606b8607a8c57090a9f91560001b6111cd565b6107bd7f281e87355acf755326df42856de96cb6d426c2a705d0d7bc2de64958d7879d8660001b6111cd565b600654905090565b60008073ffffffffffffffffffffffffffffffffffffffff168273ffffffffffffffffffffffffffffffffffffffff161415610836576040517f08c379a000000000000000000000000000000000000000000000000000000000815260040161082d906120d4565b60405180910390fd5b600360008373ffffffffffffffffffffffffffffffffffffffff1673ffffffffffffffffffffffffffffffffffffffff168152602001908152602001600020549050919050565b60405180608001604052806057815260200161261d6057913981565b6060600180546108a890611e0e565b80601f01602080910402602001604051908101604052809291908181526020018280546108d490611e0e565b80156109215780601f106108f657610100808354040283529160200191610921565b820191906000526020600020905b81548152906001019060200180831161090457829003601f168201915b5050505050905090565b61093d610936610e10565b83836111d0565b5050565b61095261094c610e10565b83610ed1565b610991576040517f08c379a000000000000000000000000000000000000000000000000000000000815260040161098890611fd6565b60405180910390fd5b61099d8484848461133d565b50505050565b6109cf7fb89af5599132332342fcbc733ff4bb953d93f095c87176871a7abbdd2990735460001b6111cd565b6109fb7fe74c49cfb5a50cf77adb5dd7aefee1040f2a585b2e4778e1e1087fc5da73729060001b6111cd565b610a277fe3eb79394fad19495c27f3081e22c47721760c3e563390c943576adf2054f59160001b6111cd565b610a3333600654611399565b610a5f7f0b540c903ed620864ef95525f1c1733ecec9a4551ce06fdc9d836ca1041a1d3260001b6111cd565b610a8b7f79204a7381f804f12e71fd87d26045224c62698ce5bf59229ec52e4a6776d89560001b6111cd565b6006547fef1da42f89c42f48befa143007e6f5efd84a2d1cc3dc97c5edd2d3373220f66d60405160405180910390a2610ae67fd2865b9078f7b61c2e428c3a6ac248b63f2265ea6b23e1506b45e66f04c4e46c60001b6111cd565b610b127f1dfbf9d0b31338b62e773bf9fc1ac6046e1e921f32483344132fd7f2aa1eb61f60001b6111cd565b6001600654610b219190612123565b600681905550565b6060610b577fe56d6f0aba62e9ea1baa5207df1ef4a925f50d1f3d8b2267a0e8cae5472a654a60001b6111cd565b610b837fef98fe795f0ded74f08072fb5481a8592eade01cae1a8a5c36360d5a811d28e960001b6111cd565b610baf7f6d7f9183532bea1b46b003e9c9e3ec33ea2674975f4ec33eb9f2a4abe1c18b9e60001b6111cd565b610bdb7f27a283985c6b99e6cc9b303653112c745b66ba4e6bdc052251c8e13f24a9385d60001b6111cd565b610be4826113b7565b610c23576040517f08c379a0000000000000000000000000000000000000000000000000000000008152600401610c1a906121eb565b60405180910390fd5b610c4f7f0d64fa1293507187cda10b6e8199d65d8b75222c2af75fc4b7fbee151781c5e160001b6111cd565b610c7b7fc0549a51974f525b4e534cd01b01a86d69b805d203de1e0b3924923f4943f97a60001b6111cd565b610ca77f6669594da8f045b87ec3d2de6595dc12bd93f0fc733829a2aec6b3eb2f81d44260001b6111cd565b60405180608001604052806057815260200161261d605791399050919050565b6000600560008473ffffffffffffffffffffffffffffffffffffffff1673ffffffffffffffffffffffffffffffffffffffff16815260200190815260200160002060008373ffffffffffffffffffffffffffffffffffffffff1673ffffffffffffffffffffffffffffffffffffffff16815260200190815260200160002060009054906101000a900460ff16905092915050565b60007f01ffc9a7000000000000000000000000000000000000000000000000000000007bffffffffffffffffffffffffffffffffffffffffffffffffffffffff1916827bffffffffffffffffffffffffffffffffffffffffffffffffffffffff1916149050919050565b610dce816113b7565b610e0d576040517f08c379a0000000000000000000000000000000000000000000000000000000008152600401610e0490612042565b60405180910390fd5b50565b600033905090565b816004600083815260200190815260200160002060006101000a81548173ffffffffffffffffffffffffffffffffffffffff021916908373ffffffffffffffffffffffffffffffffffffffff160217905550808273ffffffffffffffffffffffffffffffffffffffff16610e8b83610685565b73ffffffffffffffffffffffffffffffffffffffff167f8c5be1e5ebec7d5bd14f71427d1e84f3dd0314c0f7b2291e5b200ac8c7c3b92560405160405180910390a45050565b600080610edd83610685565b90508073ffffffffffffffffffffffffffffffffffffffff168473ffffffffffffffffffffffffffffffffffffffff161480610f1f5750610f1e8185610cc7565b5b80610f5d57508373ffffffffffffffffffffffffffffffffffffffff16610f45846104a7565b73ffffffffffffffffffffffffffffffffffffffff16145b91505092915050565b8273ffffffffffffffffffffffffffffffffffffffff16610f8682610685565b73ffffffffffffffffffffffffffffffffffffffff1614610fdc576040517f08c379a0000000000000000000000000000000000000000000000000000000008152600401610fd39061227d565b60405180910390fd5b600073ffffffffffffffffffffffffffffffffffffffff168273ffffffffffffffffffffffffffffffffffffffff16141561104c576040517f08c379a00000000000000000000000000000000000000000000000000000000081526004016110439061230f565b60405180910390fd5b611057838383611423565b611062600082610e18565b6001600360008573ffffffffffffffffffffffffffffffffffffffff1673ffffffffffffffffffffffffffffffffffffffff16815260200190815260200160002060008282546110b2919061232f565b925050819055506001600360008473ffffffffffffffffffffffffffffffffffffffff1673ffffffffffffffffffffffffffffffffffffffff16815260200190815260200160002060008282546111099190612123565b92505081905550816002600083815260200190815260200160002060006101000a81548173ffffffffffffffffffffffffffffffffffffffff021916908373ffffffffffffffffffffffffffffffffffffffff160217905550808273ffffffffffffffffffffffffffffffffffffffff168473ffffffffffffffffffffffffffffffffffffffff167fddf252ad1be2c89b69c2b068fc378daa952ba7f163c4a11628f55a4df523b3ef60405160405180910390a46111c8838383611428565b505050565b50565b8173ffffffffffffffffffffffffffffffffffffffff168373ffffffffffffffffffffffffffffffffffffffff16141561123f576040517f08c379a0000000000000000000000000000000000000000000000000000000008152600401611236906123af565b60405180910390fd5b80600560008573ffffffffffffffffffffffffffffffffffffffff1673ffffffffffffffffffffffffffffffffffffffff16815260200190815260200160002060008473ffffffffffffffffffffffffffffffffffffffff1673ffffffffffffffffffffffffffffffffffffffff16815260200190815260200160002060006101000a81548160ff0219169083151502179055508173ffffffffffffffffffffffffffffffffffffffff168373ffffffffffffffffffffffffffffffffffffffff167f17307eab39ab6107e8899845ad3d59bd9653f200f220920489ca2b5937696c318360405161133091906118d0565b60405180910390a3505050565b611348848484610f66565b6113548484848461142d565b611393576040517f08c379a000000000000000000000000000000000000000000000000000000000815260040161138a90612441565b60405180910390fd5b50505050565b6113b38282604051806020016040528060008152506115c4565b5050565b60008073ffffffffffffffffffffffffffffffffffffffff166002600084815260200190815260200160002060009054906101000a900473ffffffffffffffffffffffffffffffffffffffff1673ffffffffffffffffffffffffffffffffffffffff1614159050919050565b505050565b505050565b600061144e8473ffffffffffffffffffffffffffffffffffffffff1661161f565b156115b7578373ffffffffffffffffffffffffffffffffffffffff1663150b7a02611477610e10565b8786866040518563ffffffff1660e01b815260040161149994939291906124b6565b602060405180830381600087803b1580156114b357600080fd5b505af19250505080156114e457506040513d601f19601f820116820180604052508101906114e19190612517565b60015b611567573d8060008114611514576040519150601f19603f3d011682016040523d82523d6000602084013e611519565b606091505b5060008151141561155f576040517f08c379a000000000000000000000000000000000000000000000000000000000815260040161155690612441565b60405180910390fd5b805181602001fd5b63150b7a0260e01b7bffffffffffffffffffffffffffffffffffffffffffffffffffffffff1916817bffffffffffffffffffffffffffffffffffffffffffffffffffffffff1916149150506115bc565b600190505b949350505050565b6115ce8383611642565b6115db600084848461142d565b61161a576040517f08c379a000000000000000000000000000000000000000000000000000000000815260040161161190612441565b60405180910390fd5b505050565b6000808273ffffffffffffffffffffffffffffffffffffffff163b119050919050565b600073ffffffffffffffffffffffffffffffffffffffff168273ffffffffffffffffffffffffffffffffffffffff1614156116b2576040517f08c379a00000000000000000000000000000000000000000000000000000000081526004016116a990612590565b60405180910390fd5b6116bb816113b7565b156116fb576040517f08c379a00000000000000000000000000000000000000000000000000000000081526004016116f2906125fc565b60405180910390fd5b61170760008383611423565b6001600360008473ffffffffffffffffffffffffffffffffffffffff1673ffffffffffffffffffffffffffffffffffffffff16815260200190815260200160002060008282546117579190612123565b92505081905550816002600083815260200190815260200160002060006101000a81548173ffffffffffffffffffffffffffffffffffffffff021916908373ffffffffffffffffffffffffffffffffffffffff160217905550808273ffffffffffffffffffffffffffffffffffffffff16600073ffffffffffffffffffffffffffffffffffffffff167fddf252ad1be2c89b69c2b068fc378daa952ba7f163c4a11628f55a4df523b3ef60405160405180910390a461181860008383611428565b5050565b6000604051905090565b600080fd5b600080fd5b60007fffffffff0000000000000000000000000000000000000000000000000000000082169050919050565b61186581611830565b811461187057600080fd5b50565b6000813590506118828161185c565b92915050565b60006020828403121561189e5761189d611826565b5b60006118ac84828501611873565b91505092915050565b60008115159050919050565b6118ca816118b5565b82525050565b60006020820190506118e560008301846118c1565b92915050565b600081519050919050565b600082825260208201905092915050565b60005b8381101561192557808201518184015260208101905061190a565b83811115611934576000848401525b50505050565b6000601f19601f8301169050919050565b6000611956826118eb565b61196081856118f6565b9350611970818560208601611907565b6119798161193a565b840191505092915050565b6000602082019050818103600083015261199e818461194b565b905092915050565b6000819050919050565b6119b9816119a6565b81146119c457600080fd5b50565b6000813590506119d6816119b0565b92915050565b6000602082840312156119f2576119f1611826565b5b6000611a00848285016119c7565b91505092915050565b600073ffffffffffffffffffffffffffffffffffffffff82169050919050565b6000611a3482611a09565b9050919050565b611a4481611a29565b82525050565b6000602082019050611a5f6000830184611a3b565b92915050565b611a6e81611a29565b8114611a7957600080fd5b50565b600081359050611a8b81611a65565b92915050565b60008060408385031215611aa857611aa7611826565b5b6000611ab685828601611a7c565b9250506020611ac7858286016119c7565b9150509250929050565b600080600060608486031215611aea57611ae9611826565b5b6000611af886828701611a7c565b9350506020611b0986828701611a7c565b9250506040611b1a868287016119c7565b9150509250925092565b611b2d816119a6565b82525050565b6000602082019050611b486000830184611b24565b92915050565b600060208284031215611b6457611b63611826565b5b6000611b7284828501611a7c565b91505092915050565b611b84816118b5565b8114611b8f57600080fd5b50565b600081359050611ba181611b7b565b92915050565b60008060408385031215611bbe57611bbd611826565b5b6000611bcc85828601611a7c565b9250506020611bdd85828601611b92565b9150509250929050565b600080fd5b600080fd5b7f4e487b7100000000000000000000000000000000000000000000000000000000600052604160045260246000fd5b611c298261193a565b810181811067ffffffffffffffff82111715611c4857611c47611bf1565b5b80604052505050565b6000611c5b61181c565b9050611c678282611c20565b919050565b600067ffffffffffffffff821115611c8757611c86611bf1565b5b611c908261193a565b9050602081019050919050565b82818337600083830152505050565b6000611cbf611cba84611c6c565b611c51565b905082815260208101848484011115611cdb57611cda611bec565b5b611ce6848285611c9d565b509392505050565b600082601f830112611d0357611d02611be7565b5b8135611d13848260208601611cac565b91505092915050565b60008060008060808587031215611d3657611d35611826565b5b6000611d4487828801611a7c565b9450506020611d5587828801611a7c565b9350506040611d66878288016119c7565b925050606085013567ffffffffffffffff811115611d8757611d8661182b565b5b611d9387828801611cee565b91505092959194509250565b60008060408385031215611db657611db5611826565b5b6000611dc485828601611a7c565b9250506020611dd585828601611a7c565b9150509250929050565b7f4e487b7100000000000000000000000000000000000000000000000000000000600052602260045260246000fd5b60006002820490506001821680611e2657607f821691505b60208210811415611e3a57611e39611ddf565b5b50919050565b7f4552433732313a20617070726f76616c20746f2063757272656e74206f776e6560008201527f7200000000000000000000000000000000000000000000000000000000000000602082015250565b6000611e9c6021836118f6565b9150611ea782611e40565b604082019050919050565b60006020820190508181036000830152611ecb81611e8f565b9050919050565b7f4552433732313a20617070726f76652063616c6c6572206973206e6f7420746f60008201527f6b656e206f776e6572206e6f7220617070726f76656420666f7220616c6c0000602082015250565b6000611f2e603e836118f6565b9150611f3982611ed2565b604082019050919050565b60006020820190508181036000830152611f5d81611f21565b9050919050565b7f4552433732313a2063616c6c6572206973206e6f7420746f6b656e206f776e6560008201527f72206e6f7220617070726f766564000000000000000000000000000000000000602082015250565b6000611fc0602e836118f6565b9150611fcb82611f64565b604082019050919050565b60006020820190508181036000830152611fef81611fb3565b9050919050565b7f4552433732313a20696e76616c696420746f6b656e2049440000000000000000600082015250565b600061202c6018836118f6565b915061203782611ff6565b602082019050919050565b6000602082019050818103600083015261205b8161201f565b9050919050565b7f4552433732313a2061646472657373207a65726f206973206e6f74206120766160008201527f6c6964206f776e65720000000000000000000000000000000000000000000000602082015250565b60006120be6029836118f6565b91506120c982612062565b604082019050919050565b600060208201905081810360008301526120ed816120b1565b9050919050565b7f4e487b7100000000000000000000000000000000000000000000000000000000600052601160045260246000fd5b600061212e826119a6565b9150612139836119a6565b9250827fffffffffffffffffffffffffffffffffffffffffffffffffffffffffffffffff0382111561216e5761216d6120f4565b5b828201905092915050565b7f4552433732314d657461646174613a2055524920717565727920666f72206e6f60008201527f6e6578697374656e7420746f6b656e0000000000000000000000000000000000602082015250565b60006121d5602f836118f6565b91506121e082612179565b604082019050919050565b60006020820190508181036000830152612204816121c8565b9050919050565b7f4552433732313a207472616e736665722066726f6d20696e636f72726563742060008201527f6f776e6572000000000000000000000000000000000000000000000000000000602082015250565b60006122676025836118f6565b91506122728261220b565b604082019050919050565b600060208201905081810360008301526122968161225a565b9050919050565b7f4552433732313a207472616e7366657220746f20746865207a65726f2061646460008201527f7265737300000000000000000000000000000000000000000000000000000000602082015250565b60006122f96024836118f6565b91506123048261229d565b604082019050919050565b60006020820190508181036000830152612328816122ec565b9050919050565b600061233a826119a6565b9150612345836119a6565b925082821015612358576123576120f4565b5b828203905092915050565b7f4552433732313a20617070726f766520746f2063616c6c657200000000000000600082015250565b60006123996019836118f6565b91506123a482612363565b602082019050919050565b600060208201905081810360008301526123c88161238c565b9050919050565b7f4552433732313a207472616e7366657220746f206e6f6e20455243373231526560008201527f63656976657220696d706c656d656e7465720000000000000000000000000000602082015250565b600061242b6032836118f6565b9150612436826123cf565b604082019050919050565b6000602082019050818103600083015261245a8161241e565b9050919050565b600081519050919050565b600082825260208201905092915050565b600061248882612461565b612492818561246c565b93506124a2818560208601611907565b6124ab8161193a565b840191505092915050565b60006080820190506124cb6000830187611a3b565b6124d86020830186611a3b565b6124e56040830185611b24565b81810360608301526124f7818461247d565b905095945050505050565b6000815190506125118161185c565b92915050565b60006020828403121561252d5761252c611826565b5b600061253b84828501612502565b91505092915050565b7f4552433732313a206d696e7420746f20746865207a65726f2061646472657373600082015250565b600061257a6020836118f6565b915061258582612544565b602082019050919050565b600060208201905081810360008301526125a98161256d565b9050919050565b7f4552433732313a20746f6b656e20616c7265616479206d696e74656400000000600082015250565b60006125e6601c836118f6565b91506125f1826125b0565b602082019050919050565b60006020820190508181036000830152612615816125d9565b905091905056fe697066733a2f2f62616679626569673337696f6972373673376d67356f6f6265746e636f6a636d3363336878617379643472766964346a71687934676b61686567342f3f66696c656e616d653d302d5055472e6a736f6ea2646970667358221220007fe809bde92f492f711a9aad745ae2fc187e3d9dcc6888214d7bd567b5a38664736f6c63430008080033",
  "linkReferences": {},
  "deployedLinkReferences": {}
}