{
  "_format": "hh-sol-artifact-1",
  "contractName": "NftMarketplace",
  "sourceName": "contracts/NftMarketplace.sol",
  "abi": [
    {
      "inputs": [],
      "stateMutability": "nonpayable",
      "type": "constructor"
    },
    {
      "inputs": [
        {
          "internalType": "address",
          "name": "nftAddress",
          "type": "address"
        },
        {
          "internalType": "uint256",
          "name": "tokenId",
          "type": "uint256"
        }
      ],
      "name": "NftMarketplace__AlreadyListed",
      "type": "error"
    },
    {
      "inputs": [],
      "name": "NftMarketplace__NoProceeds",
      "type": "error"
    },
    {
      "inputs": [],
      "name": "NftMarketplace__NotApprovedForMarketplace",
      "type": "error"
    },
    {
      "inputs": [
        {
          "internalType": "address",
          "name": "nftAddress",
          "type": "address"
        },
        {
          "internalType": "uint256",
          "name": "tokenId",
          "type": "uint256"
        }
      ],
      "name": "NftMarketplace__NotListed",
      "type": "error"
    },
    {
      "inputs": [],
      "name": "NftMarketplace__NotOwner",
      "type": "error"
    },
    {
      "inputs": [],
      "name": "NftMarketplace__PriceMustBeAboveZero",
      "type": "error"
    },
    {
      "inputs": [
        {
          "internalType": "address",
          "name": "nftAddress",
          "type": "address"
        },
        {
          "internalType": "uint256",
          "name": "tokenId",
          "type": "uint256"
        },
        {
          "internalType": "uint256",
          "name": "price",
          "type": "uint256"
        }
      ],
      "name": "NftMarketplace__PriceNotMet",
      "type": "error"
    },
    {
      "inputs": [],
      "name": "NftMarketplace__TransferFailed",
      "type": "error"
    },
    {
      "anonymous": false,
      "inputs": [
        {
          "indexed": true,
          "internalType": "address",
          "name": "buyer",
          "type": "address"
        },
        {
          "indexed": true,
          "internalType": "address",
          "name": "nftAddress",
          "type": "address"
        },
        {
          "indexed": true,
          "internalType": "uint256",
          "name": "tokenId",
          "type": "uint256"
        },
        {
          "indexed": false,
          "internalType": "uint256",
          "name": "price",
          "type": "uint256"
        }
      ],
      "name": "ItemBought",
      "type": "event"
    },
    {
      "anonymous": false,
      "inputs": [
        {
          "indexed": true,
          "internalType": "address",
          "name": "seller",
          "type": "address"
        },
        {
          "indexed": true,
          "internalType": "address",
          "name": "nftAddress",
          "type": "address"
        },
        {
          "indexed": true,
          "internalType": "uint256",
          "name": "tokenId",
          "type": "uint256"
        }
      ],
      "name": "ItemCancel",
      "type": "event"
    },
    {
      "anonymous": false,
      "inputs": [
        {
          "indexed": true,
          "internalType": "address",
          "name": "seller",
          "type": "address"
        },
        {
          "indexed": true,
          "internalType": "address",
          "name": "nftAddress",
          "type": "address"
        },
        {
          "indexed": true,
          "internalType": "uint256",
          "name": "tokenId",
          "type": "uint256"
        },
        {
          "indexed": false,
          "internalType": "uint256",
          "name": "price",
          "type": "uint256"
        }
      ],
      "name": "ItemListed",
      "type": "event"
    },
    {
      "inputs": [
        {
          "internalType": "address",
          "name": "nftAddress",
          "type": "address"
        },
        {
          "internalType": "uint256",
          "name": "tokenId",
          "type": "uint256"
        }
      ],
      "name": "buyItem",
      "outputs": [],
      "stateMutability": "payable",
      "type": "function"
    },
    {
      "inputs": [
        {
          "internalType": "address",
          "name": "nftAddress",
          "type": "address"
        },
        {
          "internalType": "uint256",
          "name": "tokenId",
          "type": "uint256"
        }
      ],
      "name": "cancelListing",
      "outputs": [],
      "stateMutability": "nonpayable",
      "type": "function"
    },
    {
      "inputs": [
        {
          "internalType": "address",
          "name": "nftAddress",
          "type": "address"
        },
        {
          "internalType": "uint256",
          "name": "tokenId",
          "type": "uint256"
        }
      ],
      "name": "getListing",
      "outputs": [
        {
          "components": [
            {
              "internalType": "uint256",
              "name": "price",
              "type": "uint256"
            },
            {
              "internalType": "address",
              "name": "seller",
              "type": "address"
            }
          ],
          "internalType": "struct NftMarketplace.Listing",
          "name": "",
          "type": "tuple"
        }
      ],
      "stateMutability": "view",
      "type": "function"
    },
    {
      "inputs": [
        {
          "internalType": "address",
          "name": "seller",
          "type": "address"
        }
      ],
      "name": "getProceeds",
      "outputs": [
        {
          "internalType": "uint256",
          "name": "",
          "type": "uint256"
        }
      ],
      "stateMutability": "view",
      "type": "function"
    },
    {
      "inputs": [
        {
          "internalType": "address",
          "name": "nftAddress",
          "type": "address"
        },
        {
          "internalType": "uint256",
          "name": "tokenId",
          "type": "uint256"
        },
        {
          "internalType": "uint256",
          "name": "price",
          "type": "uint256"
        }
      ],
      "name": "listItem",
      "outputs": [],
      "stateMutability": "nonpayable",
      "type": "function"
    },
    {
      "inputs": [
        {
          "internalType": "address",
          "name": "nftAddress",
          "type": "address"
        },
        {
          "internalType": "uint256",
          "name": "tokenId",
          "type": "uint256"
        },
        {
          "internalType": "uint256",
          "name": "newPrice",
          "type": "uint256"
        }
      ],
      "name": "updateListings",
      "outputs": [],
      "stateMutability": "nonpayable",
      "type": "function"
    },
    {
      "inputs": [],
      "name": "withdrawProceeds",
      "outputs": [],
      "stateMutability": "nonpayable",
      "type": "function"
    }
  ],
  "bytecode": "0x608060405234801561001057600080fd5b50600160008190555061004b7f08cd55033976715dc98391b450e04d56ba4b64371c48bd324926a7fbec319da460001b61005060201b60201c565b610053565b50565b612e2080620000636000396000f3fe6080604052600436106100705760003560e01c806389bfd38f1161004e57806389bfd38f146101185780639038e693146101415780639f37092a14610158578063b2ddee061461017457610070565b806310447fd51461007557806330cfeda91461009e57806388700d1c146100db575b600080fd5b34801561008157600080fd5b5061009c60048036038101906100979190612a68565b61019d565b005b3480156100aa57600080fd5b506100c560048036038101906100c09190612abb565b6108ba565b6040516100d29190612af7565b60405180910390f35b3480156100e757600080fd5b5061010260048036038101906100fd9190612b12565b610986565b60405161010f9190612b9f565b60405180910390f35b34801561012457600080fd5b5061013f600480360381019061013a9190612a68565b610ad4565b005b34801561014d57600080fd5b506101566115a8565b005b610172600480360381019061016d9190612b12565b6119fe565b005b34801561018057600080fd5b5061019b60048036038101906101969190612b12565b61228d565b005b82826101cb7fc519e775e29f2beb3f2090197ece93eb7c9773a573f4d9e107c44d37dd8c8eca60001b61299c565b6101f77f81b669a7f03ec757318db63f359d801165ff15513aa6b71d853f17a54715587d60001b61299c565b6102237f475d5158df0daf715ad52a2283eff48166f5739badd55f044710ec0e3186464560001b61299c565b6000600160008473ffffffffffffffffffffffffffffffffffffffff1673ffffffffffffffffffffffffffffffffffffffff1681526020019081526020016000206000838152602001908152602001600020604051806040016040529081600082015481526020016001820160009054906101000a900473ffffffffffffffffffffffffffffffffffffffff1673ffffffffffffffffffffffffffffffffffffffff1673ffffffffffffffffffffffffffffffffffffffff1681525050905061030e7f53feef8bf2b8c8c2c463a709d31445c7b4e3906a573cd6fa6c01eaf949821a4960001b61299c565b61033a7f51748e20686fd506078df437ebbae97382072eb5bd5b23c98f5d33b0345a3bae60001b61299c565b60008160000151116103dd576103727fe81c8bffc7480f6d8a94cdc75f8efd9fd0c5f08d69e93cb552719eff880e011d60001b61299c565b61039e7f6bfb503c7ef3020687602048a975ea28d71af2543f656de8598a1b7f99404c3960001b61299c565b82826040517f6d350f220000000000000000000000000000000000000000000000000000000081526004016103d4929190612bc9565b60405180910390fd5b6104097f844f137ef12d6a9d4076759bfa156db25dd7c7aa02d3922cd9a1d3fef1cab84b60001b61299c565b6104357f83e3943205c8f39a1a5fe71c96ab4ce2b274348613dde312784bf3839c6c99e460001b61299c565b8585336104647f73a171da1bd5a86809ee4ffa3881d677b720611291d45f698b9a59f7b591cf7c60001b61299c565b6104907f7633b3412ee93419566c55a22d85fcd4af8f12622b5c67ad6d8c47b79478f64a60001b61299c565b6104bc7f5641320b344a589f83234a9a7ea7081b3ede91884ca8bfc3e9e869a9504b3cb160001b61299c565b60008390506104ed7feee16dc6fd977215136e0b06dc04c1ff65683acc0045fb93eb567e68ffa13c0760001b61299c565b6105197f4e7999b461672f302880d0cae33d470b24a905e6fa9258b4043b558b9518715260001b61299c565b60008173ffffffffffffffffffffffffffffffffffffffff16636352211e856040518263ffffffff1660e01b81526004016105549190612af7565b60206040518083038186803b15801561056c57600080fd5b505afa158015610580573d6000803e3d6000fd5b505050506040513d601f19601f820116820180604052508101906105a49190612c07565b90506105d27fadbbfa77f3668d91979747833da47fb58d7986413f6ea5ede6bf2c1d288730a860001b61299c565b6105fe7f4693269ddcbbf3917a96ed5be5b9fd7b47d15ea346e3f0ee296edf9a80900a2960001b61299c565b8073ffffffffffffffffffffffffffffffffffffffff168373ffffffffffffffffffffffffffffffffffffffff16146106bb5761065d7f345d3bab66cff43e74f9139b8ec7fafba0ac68ddf8385d03583c6514217c6d8560001b61299c565b6106897f53f9460763f2b3c3df560cdaf5f646b0d0e79ab1d885ca6ff91d2d1eac75003660001b61299c565b6040517f94953b6000000000000000000000000000000000000000000000000000000000815260040160405180910390fd5b6106e77fa5ca2397fbb88c9c5d804792503658eb4bdf1282e159a6b914a217431462acbb60001b61299c565b6107137f5f4bee125d4b9cf0cdc2d72ebda79319f5f1a70ee2a16c034b63f073e914128b60001b61299c565b61073f7f905d03f0cba920910c25439c8329d17a7812da5dd462f44e00c730c19d006a5060001b61299c565b61076b7fb55a455f736189f9f627274ec6f0e887ad57c57e0a5bbbf4111b94dfc5420b4360001b61299c565b6107977f7d2a6dbe493b3c5563304fee164985d8353597c4159d815646b9602793d078e660001b61299c565b88600160008d73ffffffffffffffffffffffffffffffffffffffff1673ffffffffffffffffffffffffffffffffffffffff16815260200190815260200160002060008c81526020019081526020016000206000018190555061081b7fd43edbfff49056af14e644890796b11d59d44e2362a5574510741a9cc93b4e1760001b61299c565b6108477fa581c3a772a576abc9affb6eff07294d8d2092030ffa192e3fee7e5cc2e556eb60001b61299c565b898b73ffffffffffffffffffffffffffffffffffffffff163373ffffffffffffffffffffffffffffffffffffffff167fd547e933094f12a9159076970143ebe73234e64480317844b0dcb36117116de48c6040516108a59190612af7565b60405180910390a45050505050505050505050565b60006108e77e3500f8a53f4c390b828d535ece7f7a3187252d0d676f99118b22c9eb672e4260001b61299c565b6109137f3e60842493028f8b10bb7b795b6e9e120572d19a82eae143c2b687643f9c969860001b61299c565b61093f7f5905d97b5a39d87270efb3a76aa21c121f4284bb19428564f8b529696817e31a60001b61299c565b600260008373ffffffffffffffffffffffffffffffffffffffff1673ffffffffffffffffffffffffffffffffffffffff168152602001908152602001600020549050919050565b61098e61299f565b6109ba7f7a2012b57c57cc1ef8e3ef7ea3137ece216f44af55cc35f65fde8da5f07022e160001b61299c565b6109e67f4983357291750f22eb870e4bc5eda578f1e29c6588d2f311a784f9d7ae5dba0260001b61299c565b610a117ee90c4e9f6dbfda7ebfe8e396fe678b4042dca42370498efbbcf477d8a63f4560001b61299c565b600160008473ffffffffffffffffffffffffffffffffffffffff1673ffffffffffffffffffffffffffffffffffffffff1681526020019081526020016000206000838152602001908152602001600020604051806040016040529081600082015481526020016001820160009054906101000a900473ffffffffffffffffffffffffffffffffffffffff1673ffffffffffffffffffffffffffffffffffffffff1673ffffffffffffffffffffffffffffffffffffffff1681525050905092915050565b828233610b037fbc0a5e6c542015faefded3e95913e972a094cde06fa65feecfe88d5296cdefc460001b61299c565b610b2f7f126c51f6bdef38d6f64c9b990f6d198517f47590ffc8814433a63781e94659bd60001b61299c565b610b5b7f578b33e2318f04a0d936a10864b9e9d634e8e393ce67c72ef9b0039fdf0feda460001b61299c565b6000600160008573ffffffffffffffffffffffffffffffffffffffff1673ffffffffffffffffffffffffffffffffffffffff1681526020019081526020016000206000848152602001908152602001600020604051806040016040529081600082015481526020016001820160009054906101000a900473ffffffffffffffffffffffffffffffffffffffff1673ffffffffffffffffffffffffffffffffffffffff1673ffffffffffffffffffffffffffffffffffffffff16815250509050610c467f24f0c7cee8b08b5be2c23c1e64a27c3d79827e75e695f98d7c7e0071f9dd9f1560001b61299c565b610c727f893b055db7a89b68e6bc2599d59b1eddcad65d3ba953592c425fe18536326c0360001b61299c565b600081600001511115610d1657610cab7fb3b6a9c4b728cff57095f60b1005bf6962ffe7b628ba199dde0098b407c867f860001b61299c565b610cd77fdcd35e35c080b25ca2936c2e24f11452cd3b12b1fb1e27246863e7d4f8b568c460001b61299c565b83836040517fc2f0d709000000000000000000000000000000000000000000000000000000008152600401610d0d929190612bc9565b60405180910390fd5b610d427fb2a5828c0a867cf901e2a9bee4cffa56d8870e1cdaabacd9c46d6bb2d909186a60001b61299c565b610d6e7f39cecd5302e866439ffac0e61a39339fb61b1195b4102465bcf24f0ad8ece69260001b61299c565b868633610d9d7f73a171da1bd5a86809ee4ffa3881d677b720611291d45f698b9a59f7b591cf7c60001b61299c565b610dc97f7633b3412ee93419566c55a22d85fcd4af8f12622b5c67ad6d8c47b79478f64a60001b61299c565b610df57f5641320b344a589f83234a9a7ea7081b3ede91884ca8bfc3e9e869a9504b3cb160001b61299c565b6000839050610e267feee16dc6fd977215136e0b06dc04c1ff65683acc0045fb93eb567e68ffa13c0760001b61299c565b610e527f4e7999b461672f302880d0cae33d470b24a905e6fa9258b4043b558b9518715260001b61299c565b60008173ffffffffffffffffffffffffffffffffffffffff16636352211e856040518263ffffffff1660e01b8152600401610e8d9190612af7565b60206040518083038186803b158015610ea557600080fd5b505afa158015610eb9573d6000803e3d6000fd5b505050506040513d601f19601f82011682018060405250810190610edd9190612c07565b9050610f0b7fadbbfa77f3668d91979747833da47fb58d7986413f6ea5ede6bf2c1d288730a860001b61299c565b610f377f4693269ddcbbf3917a96ed5be5b9fd7b47d15ea346e3f0ee296edf9a80900a2960001b61299c565b8073ffffffffffffffffffffffffffffffffffffffff168373ffffffffffffffffffffffffffffffffffffffff1614610ff457610f967f345d3bab66cff43e74f9139b8ec7fafba0ac68ddf8385d03583c6514217c6d8560001b61299c565b610fc27f53f9460763f2b3c3df560cdaf5f646b0d0e79ab1d885ca6ff91d2d1eac75003660001b61299c565b6040517f94953b6000000000000000000000000000000000000000000000000000000000815260040160405180910390fd5b6110207fa5ca2397fbb88c9c5d804792503658eb4bdf1282e159a6b914a217431462acbb60001b61299c565b61104c7f5f4bee125d4b9cf0cdc2d72ebda79319f5f1a70ee2a16c034b63f073e914128b60001b61299c565b6110787f1fc14f499c7bea5e490f6cad2461af767b8f6e5dc6d827c7cedd1ec57b4d342b60001b61299c565b6110a47f933c943774e5004e49e94ac3478f6ca1ee3c10f58499ecdee98b36d0049f87de60001b61299c565b6110d07f6035201f58f080402078f74a91c8e92c8db72dd8db73c260dc7c164d941a37b460001b61299c565b60008a11611162576111047f0c88702f0f2bd10f5f7f73b9797d211f85a3a0cfd41cc518b310da8483756cf860001b61299c565b6111307f5bb6212249014ed1e14387282fab7bc56b401a4738fa872edba72530df1c48fc60001b61299c565b6040517f096d7ecf00000000000000000000000000000000000000000000000000000000815260040160405180910390fd5b61118e7fcba1c135b5ae2527df5a4571a8aa7c7f505157a68eb7d51edc0b11b42ec2df2a60001b61299c565b6111ba7f56845939de63b7c3f1a1c180dd0fb0e7d8909fa2e78def0a55ee6f30b46e2b4260001b61299c565b6111e67ff24df631fe8b92348c0d4052c84276df47752ca785f2cd8d623b4a053f343c5660001b61299c565b60008c90506112177fe63df89a8b10369c9a9b5d21191eebfa98800caab7fef21c70388e229524a86c60001b61299c565b6112437ffda6de3a92fbfa1f659f634b50a415a2ab9e6f31687ca0cf7ef1e2968288381a60001b61299c565b3073ffffffffffffffffffffffffffffffffffffffff168173ffffffffffffffffffffffffffffffffffffffff1663081812fc8e6040518263ffffffff1660e01b81526004016112939190612af7565b60206040518083038186803b1580156112ab57600080fd5b505afa1580156112bf573d6000803e3d6000fd5b505050506040513d601f19601f820116820180604052508101906112e39190612c07565b73ffffffffffffffffffffffffffffffffffffffff16146113885761132a7ffba1ce91b994f899b13399718c1cb5e07b673876d106297e8f0880c7ae3b98c860001b61299c565b6113567f4588c130fc830a995cc06742874a4b5238d5df3aca3902fe23d3e2c0fbb9387960001b61299c565b6040517f13e7d28d00000000000000000000000000000000000000000000000000000000815260040160405180910390fd5b6113b47f15016426543f5eccb04c0730d785a9f858ab0960d907429f58b62ceb8afd548a60001b61299c565b6113e07fb4c9a3e5dfd14a13e4cf499d3305859dae4b842e86afefa6f47861ddb980448a60001b61299c565b61140c7f6244a2806eef7dcda4e9e76b9100c2ddd11c74a7a1e432a344cbd522dbdc158560001b61299c565b60405180604001604052808c81526020013373ffffffffffffffffffffffffffffffffffffffff16815250600160008f73ffffffffffffffffffffffffffffffffffffffff1673ffffffffffffffffffffffffffffffffffffffff16815260200190815260200160002060008e81526020019081526020016000206000820151816000015560208201518160010160006101000a81548173ffffffffffffffffffffffffffffffffffffffff021916908373ffffffffffffffffffffffffffffffffffffffff1602179055509050506115077f14f0041b7897d5a154094655794c09770e30a892f555eba106d5ba9ecbef890760001b61299c565b6115337f47a999b1d1cf94f8fe7d15dc567aa2d9a5e129ce001e28e54ef0475e93aa8f4960001b61299c565b8b8d73ffffffffffffffffffffffffffffffffffffffff163373ffffffffffffffffffffffffffffffffffffffff167fd547e933094f12a9159076970143ebe73234e64480317844b0dcb36117116de48e6040516115919190612af7565b60405180910390a450505050505050505050505050565b6115d47f44776a1ce164dc157c1c6dc2919837ac48f0d4093876bc7f1efed10cd0fa72b660001b61299c565b6116007f54e0d57e9d684f850fe51dda09d0c6da9e3e1f68b91ef57731a845434e86acd660001b61299c565b61162c7fffc5eb37a10d71eda85413ce4cd6217d097738c7ab52dacc306c5a0c50c16f4f60001b61299c565b6000600260003373ffffffffffffffffffffffffffffffffffffffff1673ffffffffffffffffffffffffffffffffffffffff16815260200190815260200160002054905061169c7ffe1876d5bbbd5b60902727d8b02047d4eedc7c71c406c60474bd5413fc7d604160001b61299c565b6116c87f54b2bcdcbb31ae93a69422f32e869b2ff2cc51778cdb11c9b05874c8dbae0e6360001b61299c565b6000811161175a576116fc7fc887348abbc90e3d82f2d138796864f09a1b2703410a2f0d9f458c4f739d8e0060001b61299c565b6117287f243c9dd54c8ce7362e67dd336e83a5c257a94e7810f3018d538e9a5ad09c9f4360001b61299c565b6040517f668a7c4200000000000000000000000000000000000000000000000000000000815260040160405180910390fd5b6117867f57ce130a4f1691524cc315f5733fca3981e4859a3b7875b92b243150092e0ac960001b61299c565b6117b27fe5d39bd041bf45d9167fed41cf71edb3a3920590fe615ee4881d7ff15c43171560001b61299c565b6117de7f28cd535d3e6ad2f5a2706f5d32a52880a79f37d1d780c44f03bfd1ec65bb0e2860001b61299c565b6000600260003373ffffffffffffffffffffffffffffffffffffffff1673ffffffffffffffffffffffffffffffffffffffff1681526020019081526020016000208190555061184f7f3c127507c0a412ba62c8dd686c95488c8800e05a37d48924d0a2173973c3bf9760001b61299c565b61187b7f93384416aa377a4eff7952e7d7838207671993c574767742b1f2247ff1fad54a60001b61299c565b60003373ffffffffffffffffffffffffffffffffffffffff16826040516118a190612c65565b60006040518083038185875af1925050503d80600081146118de576040519150601f19603f3d011682016040523d82523d6000602084013e6118e3565b606091505b505090506119137f0dc5624ea5f5a1f58fb1e76e5b9b0aeb4d0535502221a67d72c3d0da0bd58f7660001b61299c565b61193f7feed4b8892d958867bb9411e17d07257f16b693049d86bd1a08ab717f23a8601160001b61299c565b806119ce576119707f31695abd5a4a464797dce90e10ea343e433ff91b9c755d90d820bcc2b38106dc60001b61299c565b61199c7f2fe8c6b4ea5d2f17e072739e41234f3c097f8fb6b12138b41fc73cdcd988911960001b61299c565b6040517fa05884ba00000000000000000000000000000000000000000000000000000000815260040160405180910390fd5b6119fa7f520f67cffc4c3a477ed1d6acac5762daeeaa3abb8d4164f867f825f8a8ff0d7860001b61299c565b5050565b60026000541415611a44576040517f08c379a0000000000000000000000000000000000000000000000000000000008152600401611a3b90612cd7565b60405180910390fd5b60026000819055508181611a7a7fc519e775e29f2beb3f2090197ece93eb7c9773a573f4d9e107c44d37dd8c8eca60001b61299c565b611aa67f81b669a7f03ec757318db63f359d801165ff15513aa6b71d853f17a54715587d60001b61299c565b611ad27f475d5158df0daf715ad52a2283eff48166f5739badd55f044710ec0e3186464560001b61299c565b6000600160008473ffffffffffffffffffffffffffffffffffffffff1673ffffffffffffffffffffffffffffffffffffffff1681526020019081526020016000206000838152602001908152602001600020604051806040016040529081600082015481526020016001820160009054906101000a900473ffffffffffffffffffffffffffffffffffffffff1673ffffffffffffffffffffffffffffffffffffffff1673ffffffffffffffffffffffffffffffffffffffff16815250509050611bbd7f53feef8bf2b8c8c2c463a709d31445c7b4e3906a573cd6fa6c01eaf949821a4960001b61299c565b611be97f51748e20686fd506078df437ebbae97382072eb5bd5b23c98f5d33b0345a3bae60001b61299c565b6000816000015111611c8c57611c217fe81c8bffc7480f6d8a94cdc75f8efd9fd0c5f08d69e93cb552719eff880e011d60001b61299c565b611c4d7f6bfb503c7ef3020687602048a975ea28d71af2543f656de8598a1b7f99404c3960001b61299c565b82826040517f6d350f22000000000000000000000000000000000000000000000000000000008152600401611c83929190612bc9565b60405180910390fd5b611cb87f844f137ef12d6a9d4076759bfa156db25dd7c7aa02d3922cd9a1d3fef1cab84b60001b61299c565b611ce47f83e3943205c8f39a1a5fe71c96ab4ce2b274348613dde312784bf3839c6c99e460001b61299c565b611d107f6a4329fd8e9fda6f3daab2bd96b51425d9e7842d8e1e87eee808e1ef67840b7160001b61299c565b611d3c7f08eb4cb02684ae9a9939b2b4e21fb0eeeedb1ed3449bad050d6cb3fdfc1bcc6260001b61299c565b611d687fd98b55e3894a4fa25445f03274e5d1e8b82437d66bb33081c41d54f1a3b0fbf560001b61299c565b6000600160008773ffffffffffffffffffffffffffffffffffffffff1673ffffffffffffffffffffffffffffffffffffffff1681526020019081526020016000206000868152602001908152602001600020604051806040016040529081600082015481526020016001820160009054906101000a900473ffffffffffffffffffffffffffffffffffffffff1673ffffffffffffffffffffffffffffffffffffffff1673ffffffffffffffffffffffffffffffffffffffff16815250509050611e537f19a720e8c8800e289bea842b015f400614f119c051fa766da47327ce42a463d060001b61299c565b611e7f7f079a2839598a7ee4acf65be06c52cea7b2f41ebb58c6fcdc0c0eef651b49014b60001b61299c565b8060000151341015611f2857611eb77f78fd7fdeaa4f6a7a6a0c842072e0d1cdb644c3f8cf25eaf7eea0c33dfd0f9fe760001b61299c565b611ee37f7a801783a6604d5ab7e43188292c0dd9b9114b6b8c662f7ff3b34ccd5b8bc5e860001b61299c565b858582600001516040517f817ce9f1000000000000000000000000000000000000000000000000000000008152600401611f1f93929190612cf7565b60405180910390fd5b611f547f8ebe25d3102a669756619fa9a233c900df5dbf9dee300b7b7ef35bb0ab9f163d60001b61299c565b611f807f8bdddf5f8d21136da36bfa64a8838c6f4cf938c66999ba9a5d00fa1a1d7400d560001b61299c565b611fac7fb7069024455f076d75ea9210aa5142157ceec49467bfcca1d86832ce9034090160001b61299c565b3460026000836020015173ffffffffffffffffffffffffffffffffffffffff1673ffffffffffffffffffffffffffffffffffffffff16815260200190815260200160002054611ffb9190612d5d565b60026000836020015173ffffffffffffffffffffffffffffffffffffffff1673ffffffffffffffffffffffffffffffffffffffff1681526020019081526020016000208190555061206e7ff9269bb8967ad93d763bd4cf08b60824b59ad8f63c18c0baa59bb9cfe153bdcf60001b61299c565b600160008773ffffffffffffffffffffffffffffffffffffffff1673ffffffffffffffffffffffffffffffffffffffff16815260200190815260200160002060008681526020019081526020016000206000808201600090556001820160006101000a81549073ffffffffffffffffffffffffffffffffffffffff0219169055505061211c7fdc68873135bc968c36c7b6d60fe1b752a61597ba02dd5fd7bb8a2eb3255539b160001b61299c565b6121487fb5eff12f97931c6c1a5b93c724933a1d9aca879f1dcee448821fd9598b07b3fd60001b61299c565b8573ffffffffffffffffffffffffffffffffffffffff166342842e0e826020015133886040518463ffffffff1660e01b815260040161218993929190612db3565b600060405180830381600087803b1580156121a357600080fd5b505af11580156121b7573d6000803e3d6000fd5b505050506121e77f2116613d8fc29438f68a6124bc639fec35ec06f5e8bb7f2ec3c584d921665fb860001b61299c565b6122137f852a95a88d2873583d0a4b9634ec605799d8a8eea36055bd9324b879108b036760001b61299c565b848673ffffffffffffffffffffffffffffffffffffffff163373ffffffffffffffffffffffffffffffffffffffff167f263223b1dd81e51054a4e6f791d45a4a1ddb4aadcd93a2dfd892615c3fdac18784600001516040516122759190612af7565b60405180910390a45050505060016000819055505050565b8181336122bc7f73a171da1bd5a86809ee4ffa3881d677b720611291d45f698b9a59f7b591cf7c60001b61299c565b6122e87f7633b3412ee93419566c55a22d85fcd4af8f12622b5c67ad6d8c47b79478f64a60001b61299c565b6123147f5641320b344a589f83234a9a7ea7081b3ede91884ca8bfc3e9e869a9504b3cb160001b61299c565b60008390506123457feee16dc6fd977215136e0b06dc04c1ff65683acc0045fb93eb567e68ffa13c0760001b61299c565b6123717f4e7999b461672f302880d0cae33d470b24a905e6fa9258b4043b558b9518715260001b61299c565b60008173ffffffffffffffffffffffffffffffffffffffff16636352211e856040518263ffffffff1660e01b81526004016123ac9190612af7565b60206040518083038186803b1580156123c457600080fd5b505afa1580156123d8573d6000803e3d6000fd5b505050506040513d601f19601f820116820180604052508101906123fc9190612c07565b905061242a7fadbbfa77f3668d91979747833da47fb58d7986413f6ea5ede6bf2c1d288730a860001b61299c565b6124567f4693269ddcbbf3917a96ed5be5b9fd7b47d15ea346e3f0ee296edf9a80900a2960001b61299c565b8073ffffffffffffffffffffffffffffffffffffffff168373ffffffffffffffffffffffffffffffffffffffff1614612513576124b57f345d3bab66cff43e74f9139b8ec7fafba0ac68ddf8385d03583c6514217c6d8560001b61299c565b6124e17f53f9460763f2b3c3df560cdaf5f646b0d0e79ab1d885ca6ff91d2d1eac75003660001b61299c565b6040517f94953b6000000000000000000000000000000000000000000000000000000000815260040160405180910390fd5b61253f7fa5ca2397fbb88c9c5d804792503658eb4bdf1282e159a6b914a217431462acbb60001b61299c565b61256b7f5f4bee125d4b9cf0cdc2d72ebda79319f5f1a70ee2a16c034b63f073e914128b60001b61299c565b86866125997fc519e775e29f2beb3f2090197ece93eb7c9773a573f4d9e107c44d37dd8c8eca60001b61299c565b6125c57f81b669a7f03ec757318db63f359d801165ff15513aa6b71d853f17a54715587d60001b61299c565b6125f17f475d5158df0daf715ad52a2283eff48166f5739badd55f044710ec0e3186464560001b61299c565b6000600160008473ffffffffffffffffffffffffffffffffffffffff1673ffffffffffffffffffffffffffffffffffffffff1681526020019081526020016000206000838152602001908152602001600020604051806040016040529081600082015481526020016001820160009054906101000a900473ffffffffffffffffffffffffffffffffffffffff1673ffffffffffffffffffffffffffffffffffffffff1673ffffffffffffffffffffffffffffffffffffffff168152505090506126dc7f53feef8bf2b8c8c2c463a709d31445c7b4e3906a573cd6fa6c01eaf949821a4960001b61299c565b6127087f51748e20686fd506078df437ebbae97382072eb5bd5b23c98f5d33b0345a3bae60001b61299c565b60008160000151116127ab576127407fe81c8bffc7480f6d8a94cdc75f8efd9fd0c5f08d69e93cb552719eff880e011d60001b61299c565b61276c7f6bfb503c7ef3020687602048a975ea28d71af2543f656de8598a1b7f99404c3960001b61299c565b82826040517f6d350f220000000000000000000000000000000000000000000000000000000081526004016127a2929190612bc9565b60405180910390fd5b6127d77f844f137ef12d6a9d4076759bfa156db25dd7c7aa02d3922cd9a1d3fef1cab84b60001b61299c565b6128037f83e3943205c8f39a1a5fe71c96ab4ce2b274348613dde312784bf3839c6c99e460001b61299c565b61282f7faff041232e5b0f2bb4e77ceac07dfe3648d69868148483a831f1e1a39cd46c2660001b61299c565b61285b7ff55419b618d9b9e55cc72986a269ce2441be1f5df301f86e35ece74dff73107e60001b61299c565b600160008b73ffffffffffffffffffffffffffffffffffffffff1673ffffffffffffffffffffffffffffffffffffffff16815260200190815260200160002060008a81526020019081526020016000206000808201600090556001820160006101000a81549073ffffffffffffffffffffffffffffffffffffffff021916905550506129097fdf646358d902f52936d44575268f2a4ff1942670bcb2e58449e2ba6fa0c6693260001b61299c565b6129357f273487160e665d5deedccf85fbfc72323c4f11c916e87b84cc6057652e5bf89a60001b61299c565b888a73ffffffffffffffffffffffffffffffffffffffff163373ffffffffffffffffffffffffffffffffffffffff167fafbb223ce72219b6597689a4504d478bc445e0e829cd6f7bf117e49624980fdc60405160405180910390a450505050505050505050565b50565b604051806040016040528060008152602001600073ffffffffffffffffffffffffffffffffffffffff1681525090565b600080fd5b600073ffffffffffffffffffffffffffffffffffffffff82169050919050565b60006129ff826129d4565b9050919050565b612a0f816129f4565b8114612a1a57600080fd5b50565b600081359050612a2c81612a06565b92915050565b6000819050919050565b612a4581612a32565b8114612a5057600080fd5b50565b600081359050612a6281612a3c565b92915050565b600080600060608486031215612a8157612a806129cf565b5b6000612a8f86828701612a1d565b9350506020612aa086828701612a53565b9250506040612ab186828701612a53565b9150509250925092565b600060208284031215612ad157612ad06129cf565b5b6000612adf84828501612a1d565b91505092915050565b612af181612a32565b82525050565b6000602082019050612b0c6000830184612ae8565b92915050565b60008060408385031215612b2957612b286129cf565b5b6000612b3785828601612a1d565b9250506020612b4885828601612a53565b9150509250929050565b612b5b81612a32565b82525050565b612b6a816129f4565b82525050565b604082016000820151612b866000850182612b52565b506020820151612b996020850182612b61565b50505050565b6000604082019050612bb46000830184612b70565b92915050565b612bc3816129f4565b82525050565b6000604082019050612bde6000830185612bba565b612beb6020830184612ae8565b9392505050565b600081519050612c0181612a06565b92915050565b600060208284031215612c1d57612c1c6129cf565b5b6000612c2b84828501612bf2565b91505092915050565b600081905092915050565b50565b6000612c4f600083612c34565b9150612c5a82612c3f565b600082019050919050565b6000612c7082612c42565b9150819050919050565b600082825260208201905092915050565b7f5265656e7472616e637947756172643a207265656e7472616e742063616c6c00600082015250565b6000612cc1601f83612c7a565b9150612ccc82612c8b565b602082019050919050565b60006020820190508181036000830152612cf081612cb4565b9050919050565b6000606082019050612d0c6000830186612bba565b612d196020830185612ae8565b612d266040830184612ae8565b949350505050565b7f4e487b7100000000000000000000000000000000000000000000000000000000600052601160045260246000fd5b6000612d6882612a32565b9150612d7383612a32565b9250827fffffffffffffffffffffffffffffffffffffffffffffffffffffffffffffffff03821115612da857612da7612d2e565b5b828201905092915050565b6000606082019050612dc86000830186612bba565b612dd56020830185612bba565b612de26040830184612ae8565b94935050505056fea26469706673582212206f8a8a822daad683956b047d9f1d8e19dcf2a3c1bc1a4144605027434e407b2e64736f6c63430008080033",
  "linkReferences": {},
  "deployedLinkReferences": {}
}